:1000000012C02CC02BC02AC029C028C027C026C0BF
:1000100025C024C023C093C056C02DC01FC01EC021
:100020001DC01CC01BC011241FBECFE5D4E0DEBF25
:10003000CDBF10E0A0E6B0E0E6E7F6E002C0059034
:100040000D92A838B107D9F710E0A8E8B0E001C0D8
:100050001D92AE3BB107E1F7A2D20BC3D1CF90BD49
:1000600089B988E18AB986E880BD8A9A929A8AB16C
:10007000886D8AB908951F920F920FB60F921124BE
:1000800092980F900FBE0F901F901895282F909167
:100090008A009F5F9F7080918B009817E1F3E92F92
:1000A000F0E0E457FF4F208390938A00559A08951B
:1000B000CF93DF93EC0101C0E9DF89918823E1F759
:1000C000DF91CF9108951F920F920FB60F921124D6
:1000D0008F939F93EF93FF9390918A0080918B0071
:1000E000981771F080918B008F5F8F7080938B00D9
:1000F000E0918B00F0E0E457FF4F80818CB901C0A4
:100100005598FF91EF919F918F910F900FBE0F9097
:100110001F90189590919C0080919D00981711F464
:1001200080E0089580919D008F5F8F7180939D0086
:10013000E0919D00F0E0E256FF4F808108951F920C
:100140000F920FB60F9211248F939F93EF93FF930B
:100150009CB1E0919C00EF5FEF7180919D00E817EA
:1001600031F0E0939C00F0E0E256FF4F9083FF9166
:10017000EF919F918F910F900FBE0F901F90189548
:100180000F931F93DF93CF93CDB7DEB761970FB671
:10019000F894DEBF0FBECDBFAB018E010F5F1F4FC6
:1001A000B8011CD2C80184DF61960FB6F894DEBF97
:1001B0000FBECDBFCF91DF911F910F91089580FFAA
:1001C00002C0939A01C0939881FF02C0949A01C023
:1001D000949882FF02C0959A01C0959883FF02C04F
:1001E000969A08959698089580B390E023E09695A6
:1001F00087952A95E1F7817084998260859984605A
:100200008699886008951F938E988D988C988B9806
:10021000A99A929AE9DF182F1295107F9298929AD4
:10022000E3DF9298812B1F910895A898ECDF089541
:100230001F93182F8E9A8D9A8C9A8B9AA998929ABE
:1002400082958F70BCDF9298929A812FB8DF929836
:10025000ECDF87FDFDCF1F910895A898E9DF089591
:10026000A89AE6DF0895982F8058883008F4977090
:10027000892FF6DF0895CF93DF93EC0107C0892F14
:100280008058883008F49770892FEADF9991992374
:10029000B1F7DF91CF910895CF93DF93EC0109C0BF
:1002A000892F8058883010F0892F02C0892F8770DD
:1002B000D7DFFE0121969491992391F7DF91CF9199
:1002C00008951F93CF93DF93EB0190E087709070B8
:1002D0000896880F880F880FC0DF10E08991C0DF73
:1002E0001F5F1830D9F7DF91CF911F9108950F93B9
:1002F0001F93CF93DF938B0190E0877090700896E7
:10030000880F880F880FA9DFC0E0D0E0F801EC0F5C
:10031000FD1FE4918E2FA4DF2196C830D105B1F7DF
:10032000DF91CF911F910F910895813009F480E4FE
:100330006058860F92DF089581E08FDF08951F9344
:100340008E9A8D9A8C9A8B9AA09A8A9AA19AA89A38
:10035000929AA99A86EA9EE00197F1F79298A89856
:10036000A998929A83E02BDF929881E094E001971C
:10037000F1F7929A83E023DF929811E2812F8A9518
:10038000F1F7929A83E01BDF9298812F8A95F1F71B
:10039000929A82E014DF92981A95F1F788E25DDF75
:1003A00088E05BDF8CE059DF86E057DFC5DF1F9117
:1003B00008950F931F93CF93DF938B0190E0877085
:1003C00090700896880F880F880F47DFC0E0D0E054
:1003D000C8018C0F9D1F21D143DF2196C830D10564
:1003E000B9F7DF91CF911F910F910895CF93DF93CC
:1003F000EC01219612D1982F81508E3F40F48F57F7
:10040000883008F49770892F2BDFCE01F1CFDF9170
:10041000CF910895DF93CF93CDB7DEB761970FB635
:10042000F894DEBF0FBECDBFBE016F5F7F4F4AE0C5
:1004300050E0D4D020DF61960FB6F894DEBF0FBE37
:10044000CDBFCF91DF910895CF92DF92FF920F93AE
:100450001F93DF93CF9300D000D00F92CDB7DEB7BC
:100460006C018B01B89AC09A88EA91E60197F1F77E
:10047000B89AC09884E991E10197F1F7B898C09AC9
:100480008DE08A95F1F7B0994DC09AE1892F8A9550
:10049000F1F7B09B47C0FE01319685E0DF011D9268
:1004A0008A95E9F7892F8A95F1F78AE0F82E61E0BD
:1004B00070E0AE014A5F5F4F17C0B09BFECF8F2D3B
:1004C0008A95F1F7B09B08C0CB01022E02C0880FBD
:1004D000991F0A94E2F7382BB099FECF215068F7A4
:1004E0003193E417F50719F030E027E0E6CFB89A2A
:1004F000C09A59814B818A81252F30E0280F311D08
:10050000240F311D8C81280F311D8D8190E028171B
:10051000390711F082E007C0F6014083D8015C93EF
:1005200080E001C081E00F900F900F900F900F902E
:10053000CF91DF911F910F91FF90DF90CF900895A1
:10054000B89AC09888E893E10197F1F7B898C09AF3
:1005500080E18A95F1F790E023E0B09902C080E055
:100560000895822F8A95F1F79F5F9530B1F781E06A
:10057000089580E690E09CDD8091880090E06AE03C
:1005800070E0FEDD8FE690E093DD8091890090E0E1
:100590006AE070E0F5DD8DE790E08ADD0895CF93A5
:1005A000DF9382E087BB88BB89E190E058DD7894D7
:1005B00081E890E07DDDC4E6D0E081E890E078DD80
:1005C00088E890E069E870E03FDFD3DF80E29EE4F6
:1005D000FE013197F1F70197D9F7EFCFFB019F01AA
:1005E000E8944230BCF04532ACF44A3029F497FB31
:1005F0001EF4909581959F4F642F772726D0805DBC
:100600008A330CF0895D8193CB010097A9F716F42A
:100610005DE251931082C90108C0E199FECF9FBBF2
:100620008EBBE09A99278DB30895DC01FC01672FFA
:1006300071917723E1F7329704C07C916D937083B9
:100640006291AE17BF07C8F30895AA1BBB1B51E107
:1006500007C0AA1FBB1FA617B70710F0A61BB70B32
:10066000881F991F5A95A9F780959095BC01CD01D7
:060670000895F894FFCF8D
:1006760054656D70657261747572613A2020000A66
:1006860057696C676F746E6F73633A2000250D0AA5
:0806960000424C41424C4100BE
:00000001FF
