:100000000C9440000C945D000C945D000C945D0019
:100010000C945D000C945D000C945D000C945D00EC
:100020000C945D000C945D000C945D000C945D00DC
:100030000C945D000C945D000C943F0C0C945D00DE
:100040000C945D000C945D000C945D000C945D00BC
:100050000C945D000C945D000C945D000C945D00AC
:100060000C945D000C945D00000108000604000182
:10007000450000820000400020CA0DE50C00000091
:1000800011241FBECFEFD8E0DEBFCDBF11E0A0E04E
:10009000B1E0EAEBF3E202C005900D92A638B10799
:1000A000D9F714E0A6E8B1E001C01D92AB33B10767
:1000B000E1F70E94080E0C94DB110C9400002A98C2
:1000C000962F9F71982B9EBD0DB407FEFDCF1EBCD1
:1000D0000DB407FEFDCF67FF04C01EBC0DB407FEC4
:1000E000FDCF2A9A8EB508952A986F71682B6EBD40
:1000F0000DB407FEFDCF4EBD0DB407FEFDCF2A9A0D
:100100000895AC01FB012A988AE38EBD0DB407FE69
:10011000FDCF9A01DF0108C01EBC0DB407FEFDCF64
:10012000215030408EB58D9321153105A9F7E40F8C
:10013000F51F10822A9A08959C01FB012A988AE7EC
:100140008EBD0DB407FEFDCF08C080818EBD0DB4FD
:1001500007FEFDCF21503040319621153105A9F71A
:100160002A9A08951F93CF93DF93182FC82FD0E0BA
:10017000C076D0708091860190E0C817D90791F0C1
:1001800080EA6FE143E00E94740085E0D595C79551
:100190008A95E1F780E86FE14C2F0E947400107699
:1001A00010938601DF91CF911F9108951F93182F0F
:1001B0000E94B20080E0612F0E945F001F910895AD
:1001C0000F931F93182F062F0E94B20080E4612F17
:1001D000402F0E9474001F910F910895682F84EDA5
:1001E0000E94E00082ED61E00E94E00088E28A95D2
:1001F000F1F78AEE0E94D60080FDFBCF82ED60E031
:100200000E94E00089ED0E94D60090E008950F93CF
:100210001F93982F162F072F84ED692F0E94E0005F
:1002200086ED612F0E94E00087ED602F0E94E000C4
:1002300018E203C0812F8A95F1F78AEE0E94D6005A
:1002400080FDF8CF1F910F9108950F931F938C019C
:10025000229A2A9A84B1886284B9249A2B9A2D9A78
:1002600080E58CBD8DB581608DBD8FEF60E04FEF77
:100270000E94740080E090E00197F1F710928801ED
:100280001092870188E060E00E94E00089E060E071
:100290000E94E0008CE060E00E94E0008DE060E001
:1002A0000E94E0008AE06FEF0E94E0008BE069E1CD
:1002B0000E94E00084E060E00E94E00085E06AE1E6
:1002C0000E94E00086E06FEF0E94E00087E06FE1AF
:1002D0000E94E00088E360EB0E94E00088E26FE3A8
:1002E0000E94E00089E260E30E94E00080E369EFA1
:1002F0000E94E00081E367EF0E94E00080EC6DE087
:100300000E94E00081EC60E00E94E00080E862EC86
:1003100042E30E94740086EC62E10E94E00087ECF8
:100320006CE00E94E00084EC62E10E94E0008AEC54
:100330006CED0E94E0008BEC65E00E94E00084EE32
:10034000F80160810E94E00085EEF80161810E9461
:10035000E00082EEF80162810E94E00083EEF80185
:1003600063810E94E00080EEF80164810E94E00059
:1003700081EEF80165810E94E00080E160E071E0BB
:100380000E9407018FE10E94B20080E86BE140EC1F
:100390000E94740080E86FE144E00E9474001F91A5
:1003A0000F91089582E70E94D600863008F08F5F93
:1003B000089581E10E94EE0020E0892B09F021E000
:1003C000822F08950F931F93CF93DF93EC018B013E
:1003D0000FC08CE10E94D60081FF0AC080E86FE167
:1003E00040E80E94740080EA6FE140E80E947400D7
:1003F00080E06FE10E945F0083FDEBCF82E060E070
:100400000E94E00083E06AE10E94E00086E06C2F39
:100410000E94E0009E012050364E87E0632F0E942C
:10042000E0008AE760E040E00E947400CE01B8017D
:100430000E949C0080E86FE148E00E947400DF9118
:10044000CF911F910F91089589E30E94D6008111E9
:1004500081E008958F929F92AF92BF92CF92DF92E8
:10046000EF92FF920F931F93CF93DF935C014B01A9
:1004700089E30E94D600882319F4C0E0D0E070C060
:10048000009187011091880180E0602F0E94E000B8
:10049000012F110F110B81E0602F0E94E0008AE311
:1004A00060E00E945F00182F8AE360E00E945F0016
:1004B000382F20E0E12EFF24E22AF32AF09288016F
:1004C000E09287018AE360E00E945F00C82E8AE321
:1004D00060E00E945F00D82E8AE360E00E945F0027
:1004E000082F10E08AE360E00E945F00382F20E0D0
:1004F000202B312B27FD03C0C0E0D0E011C0CC2D54
:10050000D0E09D2D80E0C82BD92BC5010197249701
:100510008C179D0708F4EC01CE01B4010E94810004
:1005200081E0E8168AE1F8063CF08CE06FEF0E946B
:10053000E0008DE069E10DC06E2D61508CE00E94FD
:10054000E0000894E108F1086F2D772767FD7A95A0
:100550008DE00E94E00080E86EE140E40E947400BB
:10056000CE01DF91CF911F910F91FF90EF90DF901F
:10057000CF90BF90AF909F908F900895CF92DF92D1
:10058000EF92FF920F931F93CF93DF936C01413053
:1005900081F4685070407B0100E010E0685F7F4F9D
:1005A00021E130E040E050E0E20EF31E041F151F91
:1005B00015C0423021F0EE24FF2487010FC068509F
:1005C00070407B0100E010E0685F7F4F86E090E0C4
:1005D000A0E0B0E0E80EF91E0A1F1B1FF601EB01B8
:1005E00016C0808190E0A0E0B0E0BA2FA92F982F2C
:1005F0008827218130E040E050E0822B932BA42B10
:10060000B52BE80EF91E0A1F1B1F32962297C23027
:10061000D10538F7FB01EE7FEC0DFD1D60FF15C025
:10062000808190E0A0E0B0E0BA2FA92F982F882712
:1006300008C02FEF3FEF40E050E0E222F322042316
:100640001523E80EF91E0A1F1B1FC801AA27BB2786
:100650000097A105B10569F7970120953095C9016B
:10066000DF91CF911F910F91FF90EF90DF90CF908E
:100670000895CF93DF93EC0150938A0140930201D8
:1006800020E030E0F901E156FE4FDB01A20FB31F7D
:100690008C9180832F5F3F4F2430310599F720E004
:1006A00030E0F901E756FE4FDE01A20FB31F8C9137
:1006B00080832F5F3F4F2630310599F7DF91CF912F
:1006C0000895DC0120E030E0FB01E20FF31F5A96B1
:1006D0009C915A978081981711F080E008952F5FC0
:1006E0003F4F11962430310579F781E00895FC01E0
:1006F00069327105B0F08485883099F4858586303B
:1007000081F4DF019696EFE9F1E09C9180819817E2
:1007100041F41196319681E0E33AF807B1F781E0B0
:10072000089580E00895FC016A327105D0F0848557
:100730008830B9F485858823A1F48685853489F4C9
:10074000DF01EFE9F1E05E969C915E97808198175A
:1007500041F41196319681E0E33AF807A1F781E080
:10076000089580E00895FC01A9E9B1E086818083C5
:100770008D918683319681E0AF39B807B9F7089536
:100780000F931F938C01FC01108E118E80E4848BDB
:10079000158A868BC8010E9664E170E040E00E94E5
:1007A000BE02F801908F818F1F910F910895AC01C7
:1007B000FC01AFE9B1E0828D868F8D91828F3196F9
:1007C00081E0A33AB807B9F7CA010E94C0030895AF
:1007D000FC01B99694E08081680F711D8481648367
:1007E000442311F0808301C01082915031979923E6
:1007F00019F0672F7727EFCF08950F931F938C0180
:10080000FC0194A182A184A392A395A183A185A3B5
:1008100093A3C8010E94E803F80112AA13AA80E575
:1008200086A71F910F910895FC01908980E021898E
:10083000422F50E0482B592B26A5822F82958F708E
:1008400090E0880F991F880F991F481B590B44513E
:10085000504057FF02C040E050E0CA0108956A5C72
:100860007F4FDC01A60FB71F6653704003C08D9306
:100870006F5F7F4FFA014F5F5F4F84918823B9F715
:10088000CB010895DA016A5C7F4FFC01E60FF71F88
:1008900066537040922F03C08D918193915099239C
:1008A000D9F7CB01820F911D0895DC01FA0105C033
:1008B00084918D9331966150704061157105C1F737
:1008C0000895FF920F931F93CF93DF93EC01F62EC1
:1008D000072FBA01122F932FAE019E01A0E0B0E0C6
:1008E000FD01ED56FE4F8081F9018083FD01E75641
:1008F000FE4F8081F901868311962F5F3F4FA6300E
:10090000B10571F788E08C871D86DE01E0E7F0E035
:1009100084911E968C931E973196119680E0E9374C
:10092000F807B1F7188A81E18F8BA0E0B0E0FB01F6
:10093000EA0FFB1F8081FA01868FFD01E156FE4F11
:100940008081FA01828F11964F5F5F4FA430B1050D
:1009500071F79CA31DA30AA3FBA21EA218A619A6A9
:10096000DF91CF911F910F91FF90089580918901A0
:100970008695809581700895CF93DF93EC01EFE821
:10098000F1E0DC015C969C915C978081981711F0F6
:1009900080E010C01196319681E0E339F80791F7B5
:1009A000E3E9F1E08E898193219681E0E939F80746
:1009B000C9F781E0DF91CF9108958091890181FF8E
:1009C00003C08460809389010895AC0181E0809325
:1009D000890120E030E0F901E157FE4FDA01A20F72
:1009E000B31F8C9180832F5F3F4F2430310599F7DF
:1009F000089590938E0180938D010895CF93DF9396
:100A0000EC01AC0129E931E0FC01D9019FEF9083B1
:100A10008D918683319681E0AF39B807C1F788E0C0
:100A20008C8786E08D87DE01E8E6F0E084911E96F3
:100A30008C931E973196119680E0E037F807B1F756
:100A4000F90181919F01FA01868B10A24F5F5F4FE0
:100A5000F1E02F393F07A1F7DE015C9620E030E09E
:100A6000FB01E20FF31F80811A968C931A97F9010C
:100A7000E156FE4F80818D932F5F3F4F243031052B
:100A800079F7809189018860809389018AE290E0FA
:100A9000BE010E94E201DF91CF910895EF92FF9293
:100AA0000F931F937C01062F045EFC01018B0E94B3
:100AB000C0030451F70107A3085010E0005F1F4F67
:100AC000C7014A96B80141E00E94BE02F70190A713
:100AD00081A7C8014A96B7010E94E2011F910F91B8
:100AE000FF90EF900895AF92BF92DF92EF92FF9246
:100AF0000F931F93CF93DF93EC015B01D42EA801DA
:100B0000B90197010E9461046D2D6D3D08F06CEDF7
:100B1000DE019A9620E030E007C0F501E20FF31FF6
:100B200080818D932F5F3F4F2617B8F3CE010E942F
:100B30004E05DF91CF911F910F91FF90EF90DF90C5
:100B4000BF90AF900895EF92FF920F931F938C0187
:100B50007B01CB018896F801908B818BC8010E94A4
:100B6000C003F80112AA13AA8CE190E0E80EF91E66
:100B7000C8014A96B70142E00E94BE02F80192AB5A
:100B800083ABC7014A96B8010E94E2011F910F9101
:100B9000FF90EF900895EF92FF921F93CF93DF9312
:100BA000EC017B01142F0E94B303812F80618FA77A
:100BB000143031F0E114F10419F471E0E72EF12C56
:100BC000CE01B70141E00E94FD03188A88E2898BBB
:100BD000CE010E94D70384E088AB19AACE014A96C1
:100BE0006CE170E042E00E94BE029AAB8BAB86E300
:100BF00090E0BE010E94E201DF91CF911F91FF9032
:100C0000EF900895EF92FF920F931F938C017B0159
:100C100060918B0170918C0140E00E94CB0589E1CD
:100C2000F80187A7C801B7010E94A3051F910F9182
:100C3000FF90EF9008950F931F938C010E94B303D0
:100C4000F801108A8CE2818BC8010E94D70382E1EF
:100C5000F80187A7C80161E070E040E00E94FD0351
:100C6000F80116A217A28091030180A711A68D5F3B
:100C70008093030182E086AB84E087AB95E090AF80
:100C800011AE80E686A790AB88E781ABC8014A9693
:100C900060E270E042E00E94BE02F80192AB83ABDA
:100CA0008AE390E0B8010E94E2011F910F9108953C
:100CB000DF92EF92FF920F931F93CF93DF93EC019C
:100CC0007B01142FD22E032F0E94B3031D3D08F089
:100CD0001CED188A145E198BCE010E94D7038AA1DD
:100CE0008CA38BA18DA30AA3DBA21EA214511FA368
:100CF000185018A619A6DE019A9620E030E007C029
:100D0000F701E20FF31F80818D932F5F3F4F211773
:100D1000B8F3012F10E0005F1F4FCE014A96B801D3
:100D200041E00E94BE0298A789A7C8014A96BE0169
:100D30000E94E201DF91CF911F910F91FF90EF9000
:100D4000DF9008950F931F93CF93DF93EC018B01F6
:100D50000E94B303CE010E94D7031AA28CA1883F40
:100D600018F08DA18F5F8DA38CA1885F8CA3C80123
:100D7000BE010E94E201DF91CF911F910F91089572
:100D8000CF93DF93EC010E94B3031C8A82E08D8B2A
:100D9000FE01A9E9B1E0868980A38D91868B319609
:100DA00081E0AF39B807B9F7FE017C96AFE9B1E051
:100DB000808182878D91819381E0A33AB807C1F742
:100DC0008AE290E0BE010E94E201DF91CF91089596
:100DD000FF920F931F93CF93DF93EC018B0161156B
:100DE0007105E9F480918901857079F080910001A5
:100DF00090910101892B49F40E94D901882329F09F
:100E0000CE016FE871E00E94FE0480910001909194
:100E100001010196909301018093000171C00E942D
:100E200077038823B9F08D89813019F4CE010E94AF
:100E3000C0068091890183FF63C01D89123009F0CB
:100E40005FC0CE010E94BC04882309F459C01093EE
:100E5000890156C0CE01B8010E949303882309F48A
:100E60004FC09F89913089F48AA1883071F4E09154
:100E70008D01F0918E01309719F0CE014A960995B7
:100E8000CE01B8010E94A2063BC00633110510F442
:100E90009630B1F59CA180918A01981789F59DA1A2
:100EA00080910201981761F58FA5F82E81FF04C08B
:100EB000CE010E941B0624C084FF22C0CE010E94E6
:100EC000140490938C0180938B01892B49F4F0FEDC
:100ED00017C0CE0160E070E040E00E94CB0510C07A
:100EE0008EA582958F70282F30E0220F331F220F9E
:100EF000331F2E5D3F4F085010400217130710F4A8
:100F000020E030E0C901DF91CF911F910F91FF9058
:100F10000895CF93DF93DA010D900020E9F7119740
:100F2000A41B6A5C7F4FEC01C60FD71F665370404D
:100F3000FA01B0E09A012A0F3B1F02C08191899308
:100F4000E217F307D9F79B012A0F3B1FC901DF9175
:100F5000CF910895DC0120E040E050E098E115C019
:100F6000FD01E40FF51FE08138E08E2F8227F82F76
:100F7000F17080FD29272695F13009F42068315061
:100F800011F0E695F2CF4F5F5F4F4617570741F7D5
:100F9000822F0895AF92BF92DF92EF92FF920F934C
:100FA0001F93DF93CF93CDB7DEB760970FB6F8945A
:100FB000DEBF0FBECDBFD82E7A015901DE011196DA
:100FC000E4E0F1E080E101900D928150E1F7FB0156
:100FD0008081482F50E0918180E0482B592BF0E12F
:100FE000DF1679F4CA018E7F33E0880F991F3A9596
:100FF000E1F7FB0126814CE050E0421B5109480F0C
:10100000591F57FF07C081E0F70180835095419534
:101010005F4F02C0F7011082F8E2DF1699F4FB017E
:101020008481682F70E0CB018076907080369105C6
:1010300049F066FF02C04E7F05C065FF02C04C7FCD
:1010400001C0487FCA0124E0969587952A95E1F76B
:10105000F5018083842F8F70FE01E80FF11D8181DF
:10106000F801808380E060960FB6F894DEBF0FBE73
:10107000CDBFCF91DF911F910F91FF90EF90DF9047
:10108000BF90AF900895882319F0709561957F4FB8
:10109000442319F0309521953F4F621773071CF4D4
:1010A0004FEF5FEF07C040E050E02617370714F41A
:1010B00041E050E0CA0108957F928F929F92AF92D3
:1010C000BF92CF92DF92EF92FF920F931F93DF9325
:1010D000CF93CDB7DEB729970FB6F894DEBF0FBE1A
:1010E000CDBF782E6B015A0149018EEB60E070E0B4
:1010F0000E94350A8E010F5F1F4F4AE0E42EF12C4B
:10110000EC0EFD1E0E94E509F80181938F01EE159A
:10111000FF05C1F77E010894E11CF11CC70169E0DD
:1011200070E00E94AA07882311F083E008C0872D91
:10113000B701A601950184010E94CA0780E02996A3
:101140000FB6F894DEBF0FBECDBFCF91DF911F91D8
:101150000F91FF90EF90DF90CF90BF90AF909F9056
:101160008F907F9008956F927F928F929F92AF920F
:10117000BF92CF92DF92EF92FF920F931F93DF9374
:10118000CF93CDB7DEB729970FB6F894DEBF0FBE69
:10119000CDBF6C015B014A0139010E94AA098EEBA7
:1011A000B6010E94350A8E010F5F1F4F5AE0E52EEF
:1011B000F12CEC0EFD1E0E94E509F80181938F01D0
:1011C000EE15FF05C1F77E010894E11CF11CC70173
:1011D00069E070E00E94AA07882311F083E009C04B
:1011E000F6018081B701A501940183010E94CA071D
:1011F00080E029960FB6F894DEBF0FBECDBFCF9129
:10120000DF911F910F91FF90EF90DF90CF90BF90F3
:10121000AF909F908F907F906F9008951F93CF9382
:10122000DF93182FEB010E94AA090E94A1098823CD
:1012300011F482E009C084E4BE010E94350A113035
:1012400011F00E94A40980E0DF91CF911F910895D1
:101250000F931F938C010E94AA0984EBB8010E948E
:10126000350A81E00E94C109182F0E94AA091111B4
:1012700011E0812F1F910F9108950F931F93CF932A
:10128000DF938C01EB01F8018081BE010E94E90926
:10129000F801808381508D3F28F48881883211F0D5
:1012A000803189F7DF91CF911F910F910895CF92EF
:1012B000DF92EF92FF921F93DF93CF93CDB7DEB70C
:1012C00029970FB6F894DEBF0FBECDBF8FEF89838D
:1012D00010E062E0E62EF12CEC0EFD1E6E0108948B
:1012E000C11CD11C19C0C601B7010E943D098981EA
:1012F0008F3FC1F08E3FB1F020E030E0F901EE5CAD
:10130000FB4FD701A20FB31F8C9180832F5F3F4FFC
:1013100011E02830310591F78981882319F01123D4
:1013200011F311E0812F29960FB6F894DEBF0FBE9E
:10133000CDBFCF91DF911F91FF90EF90DF90CF90C5
:10134000089586B180720895459A3D9A089545980A
:101350003D98089545983D9A80EA8A95F1F78FB7B0
:10136000F8943D9896E19A95F1F796B18FBF8AE887
:101370008A95F1F7359902C081E00895892F80722E
:1013800008952FB7F8943D9A91E09A95F1F781115D
:101390003D9895E09A95F1F7359B80E09FE09A950E
:1013A000F1F73D982FBF08950F931F93182F08E072
:1013B000812F81700E94C10916958111106801501A
:1013C000B9F7812F1F910F9108958FEF0E94D409D3
:1013D0000895DF92EF92FF920F931F93CF93DF93C5
:1013E000E82EEB010E94AA098823A1F580EF0E9454
:1013F000D40980E4FF24182F98EFD92ED80E81E06D
:101400000E94C109082F81E00E94C109882329F0A8
:10141000002371F08EEFF82E1FC0002349F41E1533
:1014200028F0888180FF04C0E11611F0F12E01E060
:10143000802F0E94C109888186958883002311F03E
:101440008068888311501D15D1F6112329F021964B
:10145000812FD1CFFF24FA948F2DDF91CF911F914F
:101460000F91FF90EF90DF9008950F931F93CF930C
:10147000DF93082FEB010E94AA09209751F085E520
:101480000E94D40918E089910E94D4091150D9F71B
:1014900003C08CEC0E94D409802F0E94D409DF91F4
:1014A000CF911F910F91089580FF02C05B9A01C0F8
:1014B0005B9881FF02C05C9A01C05C9882FF02C009
:1014C0005D9A01C05D9883FF02C05E9A08955E98A0
:1014D000089589B190E023E0969587952A95E1F7E4
:1014E00081704C9982604D9984604E99886008950E
:1014F0001F935698559854985398599A5F9A0E94FA
:10150000690A182F1295107F5F985F9A0E94690AE6
:101510005F98812B1F91089558980E94780A08952A
:101520001F93182F569A559A549A539A59985F9A1E
:1015300082958F700E94540A5F985F9A812F0E9453
:10154000540A5F980E948C0A87FDFCCF1F91089572
:1015500058980E94900A0895589A0E94900A0895F7
:10156000982F8058883008F49770892F0E94AC0A11
:101570000895CF93DF93EC0108C0892F80588830FD
:1015800008F49770892F0E94AC0A99919923A9F7C2
:10159000DF91CF910895CF93DF93EC010AC0892F9B
:1015A0008058883010F0892F02C0892F87700E94E0
:1015B000AC0AFE0121969491992389F7DF91CF918E
:1015C00008951F93CF93DF93EB0190E087709070A5
:1015D0000896880F880F880F0E94A80A10E089914A
:1015E0000E94AC0A1F5F1830D1F7DF91CF911F9195
:1015F00008950F931F93CF93DF938B0190E0877033
:1016000090700896880F880F880F0E94A80AC0E083
:10161000D0E0F801EC0FFD1FE4918E2F0E94AC0A80
:101620002196C830D105A9F7DF91CF911F910F9175
:101630000895813009F480E46058860F0E94A80A5A
:10164000089581E00E94A80A08951F93569A559A1A
:10165000549A539A509A579A519A589A5F9A599A0B
:1016600086EA9EE00197F1F75F98589859985F9A3B
:1016700083E00E94540A5F9881E094E00197F1F7BB
:101680005F9A83E00E94540A5F9811E2812F8A9545
:10169000F1F75F9A83E00E94540A5F98812F8A9540
:1016A000F1F75F9A82E00E94540A5F981A95F1F769
:1016B00088E20E94A80A88E00E94A80A8CE00E94A2
:1016C000A80A86E00E94A80A0E94210B1F91089593
:1016D0000F931F93CF93DF938B0190E087709070EF
:1016E0000896880F880F880F0E94A80AC0E0D0E0F3
:1016F000C8018C0F9D1F0E94D8100E94AC0A219631
:10170000C830D105A9F7DF91CF911F910F910895AE
:10171000CF93DF93EC0121960E94D810982F81502F
:101720008E3F48F48F57883008F49770892F0E94B5
:10173000AC0ACE01EFCFDF91CF910895DF93CF9325
:10174000CDB7DEB761970FB6F894DEBF0FBECDBF41
:10175000BE016F5F7F4F4AE050E00E94AE0E0E94D4
:10176000B90A61960FB6F894DEBF0FBECDBFCF9118
:10177000DF9108959093310480933004089585B1EA
:1017800092E0892785B90895EF92FF920F931F93F6
:10179000FC01D80187018091A301882319F08617E5
:1017A00009F068C08081FF24862361F4FF24F3944C
:1017B0008091A401882331F4F092A40185E0809304
:1017C0003A044EC08091A401882309F449C0FF2047
:1017D00081F08130E1F480913A04882309F040C01F
:1017E00082E08093A40183E080933A046093A30194
:1017F00037C08230A8F1843098F5109719F0862F01
:10180000FD0109951092A4011092A30129C0823014
:1018100079F480913A04882319F52115310511F4E2
:1018200026E930E083E08093A40120933A0418C0B5
:10183000833041F480913A04882391F484E08093CA
:10184000A4010EC0843061F480913A04882341F4ED
:1018500040933A040115110519F0862FF8010995F6
:101860008091A401833030F0FF2021F41092A40174
:101870001092A3011F910F91FF90EF9008951F9276
:101880000F920FB60F9211248F9380913A04882300
:1018900019F0815080933A048F910F900FBE0F90F2
:1018A0001F901895EF92FF920F931F93DF93CF93A2
:1018B000CDB7DEB76E970FB6F894DEBF0FBECDBFC3
:1018C00000D000D000D0EDB7FEB731968E010F5F8B
:1018D0001F4FADB7BEB712961C930E93119724E11C
:1018E00031E033832283848315820E94D70EF8016E
:1018F00001900020E9F73197E01BF10B8DB79EB7FF
:1019000006960FB6F8949EBF0FBE8DBF85EA91E094
:10191000B8014E2F2CE434E00CE611E058E0E52E3F
:1019200052E5F52E0E9473056E960FB6F894DEBF51
:101930000FBECDBFCF91DF911F910F91FF90EF9020
:1019400008950F931F93CF93DF93EC018AE892E001
:1019500065EA71E00E942A028C0185EA91E0B801F3
:101960000E94E806012B61F18091BC01813141F5B3
:101970009091C90180E02091CA01622F70E0682B2C
:10198000792B20E0E22FF0E0EE0FFF1FEC0FFD1FA0
:10199000808191818617970721F0222389F421E025
:1019A000F1CF2091CC01E0913004F09131043097D7
:1019B00039F028508FEB91E04AE250E030E0099591
:1019C000DF91CF911F910F910895EF92FF920F93A6
:1019D0001F93DF93CF9300D0CDB7DEB79A8389836F
:1019E00080E090E06AE671E08E010F5F1F4FA80172
:1019F0000E94870E7C0180E090E06AE671E0A80119
:101A00000E94870E8C01E114F10461F00E94210B09
:101A1000C7010E94B90A81E060E00E94190BC80169
:101A20000E94B90A0F900F90CF91DF911F910F91F3
:101A3000FF90EF900895AF92BF92CF92DF92EF9216
:101A4000FF920F931F93DF93CF93CDB7DEB7AA9783
:101A50000FB6F894DEBF0FBECDBF6C017B015A01FB
:101A60000E94210B80E391E00E94B90AC7010E9405
:101A70009E0B81E060E00E94190B00E010E0F6018F
:101A8000E00FF11F808190E00E949E0B033049F02F
:101A90008BE391E00E94B90A0F5F1F4F04301105DC
:101AA00071F78091760190917701E816F90699F522
:101AB0008E010D5F1F4FC8016DE371E00E94800E23
:101AC000F80101900020E9F73197E01BF10B85EA5E
:101AD00091E0B8014E2F97010E945806C5018B5521
:101AE0009E4F62E571E00E94800E85EA91E060EB16
:101AF00074E04CE651E02CEE39EA0E946104F801F2
:101B000001900020E9F73197E01BF10B85EA91E0A5
:101B10006E2F0E944E058091740190917501E81618
:101B2000F90639F5C5018B559E4F6AE671E0AE01A5
:101B30004F5F5F4F0E94870E0097D9F00E94620EA0
:101B40008130910551F08230910561F0892B89F443
:101B500089819A810E94CA0D0CC089819A810E9454
:101B6000E50C07C0E0917D00F0917E0089819A81AB
:101B70000995AA960FB6F894DEBF0FBECDBFCF91E0
:101B8000DF911F910F91FF90EF90DF90CF90BF906A
:101B9000AF900895FF920F931F93DF93CF9300D0E0
:101BA000CDB7DEB79A83898380E090E06AE671E082
:101BB0008E010F5F1F4FA8010E94870E009701F151
:101BC0000E94620EF82E80E090E06AE671E0A801C3
:101BD0000E94870E0097A1F00E94620E91E0F91614
:101BE00021F092E0F91661F406C0882311F02998DB
:101BF00007C0299A05C0882311F05F9801C05F9A39
:101C00000F900F90CF91DF911F910F91FF9008954A
:101C1000EF92FF920F931F9388B18C6088B9219A3D
:101C2000579A299A5F9A84B5826084BD85B585608C
:101C300085BD8CE687BD80916E00826080936E00CA
:101C40000E94250B82E691E00E94B90A88E791E0A4
:101C50000E94250184E166E774E00E94070188E79D
:101C600091E06EE771E040E550E00E94390382E8C0
:101C700091E00E94E5048FEB9BE00E94F9048BE168
:101C80009DE09093310480933004789484E791E050
:101C90000E94A10C86E290E064E044E650E028EC6B
:101CA00030E002E51CE078010E94C40B86E290E07F
:101CB00068E044E150E028EC30E0EE24FF240E948C
:101CC000C40BE4CFFC0188279927E89421912032A6
:101CD000E9F3293010F02E30C8F32B3241F02D32C9
:101CE00039F4689404C00E94CF0E820F911D219197
:101CF00020532A30C0F31EF4909581959F4F08958C
:101D0000FB01DC0101900D920020E1F70895FA013A
:101D1000A191B081009719F41097E1F0CD01DC0199
:101D2000CD010D90002011F4C00113C0FB012191E1
:101D3000222319F02015D9F7F3CFFB0121912015AB
:101D400019F41E92119606C02223C1F70D900020AF
:101D5000A1F7D001FA01A193B0830895FB019F017F
:101D6000E8944230C4F04532B4F44A3029F497FB89
:101D70001EF4909581959F4F642F77270E949011B4
:101D8000805D8A330CF0895D8193CB010097A1F7C8
:101D900016F45DE251931082C9010C94F6107AE0BA
:101DA000979F902D879F802D910D11240895AEE06F
:101DB000B0E0EDEDFEE00C94B2110D891E8986E0D5
:101DC0008C831A8309838FEF9FE79E838D839E0107
:101DD000275E3F4FCE0101966F89788DA9010E9441
:101DE000FB0E2F813885020F131FF80110822E96EB
:101DF000E4E00C94CE11ABE0B0E0E1E0FFE00C9445
:101E0000A4113C012B015A01FC0117821682838127
:101E100081FD03C06FEF7FEFC6C19AE0892E1E01DE
:101E20000894211C311CF3012381F20123FD8591CB
:101E300023FF81912F01882309F4B2C1853239F43F
:101E400023FD859123FF81912F01853229F490E0B4
:101E5000B3010E940611E7CF982FFF24EE249924A6
:101E6000FFE1FF15D0F09B3269F09C3228F49032EC
:101E700059F0933291F40EC09D3249F0903369F4D9
:101E800041E024C052E0F52A84E0F82A28C098E016
:101E9000F92A25C0E0E1FE2A22C0F7FC29C0892FDB
:101EA00080538A3070F4F6FE05C0989C902C112463
:101EB000980E15C0E89CE02C1124E80EF0E2FF2AF1
:101EC0000EC09E3229F4F6FC6BC140E4F42A07C030
:101ED0009C3619F450E8F52A02C0983649F4F2010C
:101EE00023FD959123FF91912F01992309F0B8CFFC
:101EF000892F8554833018F08052833038F444E0C1
:101F000050E0A40EB51E5FE359830FC0933631F045
:101F1000933779F0933509F056C020C0F5018081E0
:101F2000898342E050E0A40EB51E610101E010E09B
:101F300012C0F501C080D180F6FC03C06FEF7FEFC7
:101F400002C0692D70E042E050E0A40EB51EC6014B
:101F50000E94EB108C015FE7F52214C0F501C080F0
:101F6000D180F6FC03C06FEF7FEF02C0692D70E0F7
:101F700042E050E0A40EB51EC6010E94E0108C01A4
:101F800050E8F52AF3FE07C01AC080E290E0B301E2
:101F90000E940611EA948E2D90E008171907A8F305
:101FA0000EC0F601F7FC8591F7FE81916F0190E07C
:101FB000B3010E940611E110EA940150104001158E
:101FC000110579F7EAC0943611F0993669F5F7FEF4
:101FD00008C0F501208131814281538184E090E085
:101FE0000AC0F501808191819C01442737FD40950D
:101FF000542F82E090E0A80EB91E9FE6F92257FF09
:1020000009C050954095309521953F4F4F4F5F4FF8
:10201000E0E8FE2ACA01B901A1012AE030E00E94ED
:102020003211D82ED21840C0953729F41F2D1F7EAB
:102030002AE030E01DC01F2D197F9F3661F09037D8
:1020400020F4983509F0ACC00FC0903739F09837BC
:1020500009F0A6C004C028E030E00AC0106114FDF9
:10206000146020E130E004C014FD166020E132E08D
:1020700017FF08C0F501608171818281938144E07E
:1020800050E008C0F50180819181BC0180E090E0C2
:1020900042E050E0A40EB51EA1010E943211D82EDC
:1020A000D2188FE7F82EF122F6FE0BC05EEFF52274
:1020B000D91438F4F4FE07C0F2FC05C08FEEF82204
:1020C00002C01D2D01C0192DF4FE0DC0FE01ED0D45
:1020D000F11D8081803319F499EEF92208C01F5F49
:1020E000F2FE05C003C08F2D867809F01F5F0F2D0B
:1020F000F3FC14C0F0FE0FC01E1510F09D2C0BC099
:102100009D2C9E0C911A1E2D06C080E290E0B3011A
:102110000E9406111F5F1E15C0F304C01E1510F4A7
:10212000E11A01C0EE2404FF0FC080E390E0B30188
:102130000E94061102FF1DC001FD03C088E790E068
:102140000EC088E590E00BC0802F867891F001FFEB
:1021500002C08BE201C080E2F7FC8DE290E0B301A7
:102160000E94061106C080E390E0B3010E940611B0
:102170009A94D914C0F3DA94F101ED0DF11D808128
:1021800090E0B3010E940611DD20A9F706C080E2AD
:1021900090E0B3010E940611EA94EE20C1F743CE0D
:1021A000F30166817781CB012B96E2E10C94C0119B
:1021B000F999FECF92BD81BDF89A992780B508950F
:1021C000FC010590615070400110D8F78095909502
:1021D0008E0F9F1F0895FC01615070400190011007
:1021E000D8F7809590958E0F9F1F0895DC01FC0114
:1021F000672F71917723E1F7329704C07C916D933B
:1022000070836291AE17BF07C8F308950F931F93B1
:10221000CF93DF938C01EB018B8181FF1BC082FF89
:102220000DC02E813F818C819D812817390764F470
:10223000E881F9810193F983E88306C0E885F9858F
:10224000802F0995892B31F48E819F8101969F8380
:102250008E8302C00FEF1FEFC801DF91CF911F9156
:102260000F910895FA01AA27283051F1203181F108
:10227000E8946F936E7F6E5F7F4F8F4F9F4FAF4F8E
:10228000B1E03ED0B4E03CD0670F781F891F9A1FA1
:10229000A11D680F791F8A1F911DA11D6A0F711D55
:1022A000811D911DA11D20D009F468943F912AE061
:1022B000269F11243019305D3193DEF6CF01089549
:1022C000462F4770405D4193B3E00FD0C9F7F6CF7A
:1022D000462F4F70405D4A3318F0495D31FD405242
:1022E000419302D0A9F7EACFB4E0A69597958795D8
:1022F00077956795BA95C9F70097610571050895B7
:102300009B01AC010A2E0694579547953795279562
:10231000BA95C9F7620F731F841F951FA01D0895FA
:10232000AA1BBB1B51E107C0AA1FBB1FA617B707FB
:1023300010F0A61BB70B881F991F5A95A9F7809517
:102340009095BC01CD0108952F923F924F925F92DC
:102350006F927F928F929F92AF92BF92CF92DF92B5
:10236000EF92FF920F931F93CF93DF93CDB7DEB71A
:10237000CA1BDB0B0FB6F894DEBF0FBECDBF0994AE
:102380002A88398848885F846E847D848C849B8405
:10239000AA84B984C884DF80EE80FD800C811B8113
:1023A000AA81B981CE0FD11D0FB6F894DEBF0FBE42
:0A23B000CDBFED010895F894FFCFB2
:1023BA000100500A0001010202030404050606078F
:1023CA000708090953757065724465626F756E6313
:1023DA0065206B6C6177737A206E723A20256900EA
:1023EA005544502066726F6D3A20002E0052616D7E
:1023FA006B61206F64706F776965647A69205544F0
:10240A0050004E6F77612072616D6B6120554450A8
:10241A00210053746172742E2E005E00C0A8000A57
:10242A00C0A800B4B004AC5800BE130D1CE6C0A886
:06243A000164C0A80101CD
:00000001FF
