:1000000012C019C018C017C016C015C014C013C044
:1000100012C011C010C00FC00EC00DC00CC00BC06C
:100020000AC009C008C011241FBECFE5D4E0DEBF5E
:10003000CDBF02D023C0E4CF82E087BB8FE891E040
:1000400097BD86BD1BBC1ABC19BC18BC82E88FBD0D
:1000500081E18EBD80E090E024EF31E006C09BBDE1
:100060008ABDF9013197F1F7019641E08039940793
:10007000B4F39BBD8ABD80E090E0F7CFF894FFCF4A
:00000001FF
