:100000000C9434000C9451000C9451000C94510049
:100010000C9451000C9451000C9451000C9451001C
:100020000C9451000C9451000C9451000C9451000C
:100030000C9451000C9451000C9451000C945100FC
:100040000C9451000C9451000C9451000C945100EC
:100050000C9451000C9451000C9451000C945100DC
:100060000C9451000C94510011241FBECFEFD8E026
:10007000DEBFCDBF11E0A0E0B1E0EAE9F4E002C0EC
:1000800005900D92A430B107D9F711E0A4E0B1E0DA
:1000900001C01D92A630B107E1F70E94BD010C948A
:1000A0004B020C94000080FF02C05B9A01C05B9879
:1000B00081FF02C05C9A01C05C9882FF02C05D9A19
:1000C00001C05D9883FF02C05E9A08955E9808950E
:1000D00089B190E023E0969587952A95E1F78170A4
:1000E0004C9982604D9984604E99886008951F9361
:1000F0005698559854985398599A5F9A0E94680058
:10010000182F1295107F5F985F9A0E9468005F9881
:10011000812B1F91089558980E94770008951F938E
:10012000182F569A559A549A539A59985F9A8295CD
:100130008F700E9453005F985F9A812F0E94530036
:100140005F980E948B0087FDFCCF1F9108955898FF
:100150000E948F000895589A0E948F000895982F4A
:100160008058883008F49770892F0E94AB0008955A
:10017000CF93DF93EC0108C0892F8058883008F4B2
:100180009770892F0E94AB0099919923A9F7DF916D
:10019000CF910895CF93DF93EC010AC0892F805847
:1001A000883010F0892F02C0892F87700E94AB0021
:1001B000FE0121969491992389F7DF91CF910895BB
:1001C0001F93CF93DF93EB0190E0877090700896B8
:1001D000880F880F880F0E94A70010E089910E9465
:1001E000AB001F5F1830D1F7DF91CF911F910895B9
:1001F0000F931F93CF93DF938B0190E087709070E4
:100200000896880F880F880F0E94A700C0E0D0E0F2
:10021000F801EC0FFD1FE4918E2F0E94AB00219698
:10022000C830D105A9F7DF91CF911F910F910895A3
:10023000813009F480E46058860F0E94A700089579
:1002400081E00E94A70008950F931F93569A559A34
:10025000549A539A509A579A519A589A5F9A599A1F
:1002600080E395E70197F1F75F98589859985F9A5E
:1002700083E00E9453005F9888E090E20197F1F7D5
:100280005F9A83E00E9453005F9808EC10E0C80179
:100290000197F1F75F9A83E00E9453005F98C801CD
:1002A0000197F1F75F9A82E00E9453005F98C801BE
:1002B0000197F1F788E20E94A70088E00E94A7005A
:1002C0008CE00E94A70086E00E94A7000E94200107
:1002D0001F910F9108950F931F93CF93DF938B017D
:1002E00090E0877090700896880F880F880F0E94A2
:1002F000A700C0E0D0E0C8018C0F9D1F0E941F0224
:100300000E94AB002196C830D105A9F7DF91CF91AB
:100310001F910F910895CF93DF93EC0121960E94D6
:100320001F02982F81508E3F48F48F57883008F471
:100330009770892F0E94AB00CE01EFCFDF91CF9154
:100340000895DF93CF93CDB7DEB761970FB6F894DA
:10035000DEBF0FBECDBFBE016F5F7F4F4AE050E0F2
:100360000E94FE010E94B80061960FB6F894DEBFAD
:100370000FBECDBFCF91DF9108950F931F93CF9301
:10038000DF933D98219A0E94240180917C00856C26
:1003900080937C0080917A00866880937A008091B7
:1003A0007A00806480937A0008EC10E080917A00F3
:1003B00086FDFCCF8091790020917800D82FC0E095
:1003C00030E02C2B3D2B309305012093040180E07D
:1003D00060E00E94180180910401909105010E9443
:1003E000A10188E893E1F8013197F1F70197D9F776
:1003F00080917A00806480937A00D8CFFB019F01BE
:10040000E8944230C4F04532B4F44A3029F497FB02
:100410001EF4909581959F4F642F77270E94370295
:10042000805D8A330CF0895D8193CB010097A1F741
:1004300016F45DE251931082C9010C942702F999D8
:10044000FECF92BD81BDF89A992780B50895DC0151
:10045000FC01672F71917723E1F7329704C07C91FB
:100460006D9370836291AE17BF07C8F30895AA1BFE
:10047000BB1B51E107C0AA1FBB1FA617B70710F08F
:10048000A61BB70B881F991F5A95A9F780959095C1
:0A049000BC01CD010895F894FFCFE0
:04049A000500000059
:00000001FF
