:1000000012C02CC02BC02AC029C028C027C026C0BF
:1000100025C024C023C022C021C020C01FC01EC0D4
:100020001DC01CC01BC011241FBECFE5D4E0DEBF25
:10003000CDBF10E0A0E6B0E0E0E0FBE002C005903C
:100040000D92AE37B107D9F710E0AEE7B0E001C0CE
:100050001D92A838B107E1F7FFD150C5D1CF80FF7D
:1000600002C0939A01C0939881FF02C0949A01C084
:10007000949882FF02C0959A01C0959883FF02C0B0
:10008000969A08959698089580B390E023E0969507
:1000900087952A95E1F781708499826085998460BB
:1000A0008699886008951F938E988D988C988B9868
:1000B000919A929AE9DF182F1295107F9298929A4E
:1000C000E3DF9298812B1F9108959098ECDF0895BB
:1000D0001F93182F8E9A8D9A8C9A8B9A9198929A38
:1000E00082958F70BCDF9298929A812FB8DF929898
:1000F000ECDF87FDFDCF1F9108959098E9DF08950B
:10010000909AE6DF0895982F8058883008F4977009
:10011000892FF6DF0895CF93DF93EC0107C0892F75
:100120008058883008F49770892FEADF99919923D5
:10013000B1F7DF91CF910895CF93DF93EC0109C020
:10014000892F8058883010F0892F02C0892F87703E
:10015000D7DFFE0121969491992391F7DF91CF91FA
:1001600008951F93CF93DF93EB0190E08770907019
:100170000896880F880F880FC0DF10E08991C0DFD4
:100180001F5F1830D9F7DF91CF911F9108950F931A
:100190001F93CF93DF938B0190E087709070089648
:1001A000880F880F880FA9DFC0E0D0E0F801EC0FBE
:1001B000FD1FE4918E2FA4DF2196C830D105B1F741
:1001C000DF91CF911F910F910895813009F480E460
:1001D0006058860F92DF089581E08FDF08951F93A6
:1001E0008E9A8D9A8C9A8B9A889A8A9A899A909AE2
:1001F000929A919A86EA9EE00197F1F792989098E8
:100200009198929A83E02BDF929881E094E0019795
:10021000F1F7929A83E023DF929811E2812F8A9579
:10022000F1F7929A83E01BDF9298812F8A95F1F77C
:10023000929A82E014DF92981A95F1F788E25DDFD6
:1002400088E05BDF8CE059DF86E057DFC5DF1F9178
:1002500008950F931F93CF93DF938B0190E08770E6
:1002600090700896880F880F880F47DFC0E0D0E0B5
:10027000C8018C0F9D1F3FD343DF2196C830D105A5
:10028000B9F7DF91CF911F910F910895CF93DF932D
:10029000EC01219630D3982F81508E3F40F48F5738
:1002A000883008F49770892F2BDFCE01F1CFDF91D2
:1002B000CF910895DF93CF93CDB7DEB761970FB697
:1002C000F894DEBF0FBECDBFBE016F5F7F4F4AE027
:1002D00050E003D120DF61960FB6F894DEBF0FBE69
:1002E000CDBFCF91DF91089520E030E074E163E06D
:1002F00051E043E180FF09C0A39AAB98952F9A95EE
:10030000F1F7A39AAB9A942F08C0A39AAB98972FB2
:100310009A95F1F7A39AAB9A962F9A95F1F72F5FDA
:100320003F4F2830310511F08695E4CF0895A39A08
:10033000AB9881E08A95F1F7A398AB9A83E08A9510
:10034000F1F783B390E023E0969587952A95E1F73E
:1003500081700895EF92FF920F931F93CF93DF93D5
:10036000C0E0D0E010E031E0E32EF12C05E0DFDF6B
:10037000882341F0C7010C2E02C0880F991F0A94F0
:10038000E2F7182B802F8A95F1F72196C830D10516
:1003900071F7812FDF91CF911F910F91FF90EF9017
:1003A0000895DF93CF93CDB7DEB762970FB6F89479
:1003B000DEBF0FBECDBFDE011196E0E6F0E087E0C4
:1003C00001900D928150E1F7DE011896E7E6F0E02A
:1003D0008BE001900D928150E1F7A39AAB9886EAE9
:1003E0008A95F1F7A398AB9A86E08A95F1F780E0B9
:1003F00090E033E09B9B0AC0232F2A95F1F70196EA
:100400008C309105B9F7CE01089602C0CE01019655
:1004100082DE62960FB6F894DEBF0FBECDBFCF91DD
:10042000DF9108950F931F93BCDF8CEC5DDF84E4B4
:100430005BDFA398AB9AB5DF8CEC56DF8EEB54DF15
:1004400089DF082F10E086DF382F20E0202B312BAA
:10045000C9011F910F910895CF92DF92EF92FF9201
:100460000F931F93CF93DF93BADEB6DECEE7D0E0D3
:1004700062E7C62E60E0D62E59E1E52EF12CD2DFE0
:100480008C01AADE00D000D000D0EDB7FEB73196C7
:10049000ADB7BEB71296DC93CE931197D382C282CA
:1004A00044E0169507954A95E1F71583048334D007
:1004B0008DB79EB706960FB6F8949EBF0FBE8DBF40
:1004C000CE0129DE87E790E026DE80E593ECF70198
:1004D0003197F1F70197D9F7D2CFFB019F01E8944B
:1004E0004230BCF04532ACF44A3029F497FB1EF49C
:1004F000909581959F4F642F7727B5D2805D8A3381
:100500000CF0895D8193CB010097A9F716F45DE2A9
:1005100051931082C9010DC2AEE0B0E0E1E9F2E012
:10052000C4C20D891E8986E08C831A8309838FEFEC
:100530009FE79E838D839E01275E3F4FCE010196EC
:100540006F89788DA90109D02F813885020F131F7B
:10055000F80110822E96E4E0C4C2ABE0B0E0E2EB1A
:10056000F2E095C23C012B015A01FC011782168270
:10057000838181FD03C06FEF7FEFB9C19AE0892EBF
:100580001E010894211C311CF3012381F20123FD7B
:10059000859123FF81912F01882309F4A5C185321C
:1005A00039F423FD859123FF81912F01853221F4B8
:1005B00090E0B301CED1E8CF982FFF24EE24992408
:1005C000FFE1FF15D0F09B3269F09C3228F49032A5
:1005D00059F0933291F40EC09D3249F0903369F492
:1005E00041E024C052E0F52A84E0F82A28C098E0CF
:1005F000F92A25C0E0E1FE2A22C0F7FC29C0892F94
:1006000080538A3070F4F6FE05C0989C902C11241B
:10061000980E15C0E89CE02C1124E80EF0E2FF2AA9
:100620000EC09E3229F4F6FC5FC140E4F42A07C0F4
:100630009C3619F450E8F52A02C0983649F4F201C4
:1006400023FD959123FF91912F01992309F0B8CFB4
:10065000892F8554833018F08052833038F444E079
:1006600050E0A40EB51E5FE359830FC0933631F0FE
:10067000933779F0933509F052C01FC0F50180819E
:10068000898342E050E0A40EB51E610101E010E054
:1006900011C0F501C080D180F6FC03C06FEF7FEF81
:1006A00002C0692D70E042E050E0A40EB51EC60104
:1006B00035D18C015FE7F52213C0F501C080D180F0
:1006C000F6FC03C06FEF7FEF02C0692D70E042E0DF
:1006D00050E0A40EB51EC60116D18C0150E8F52AD3
:1006E000F3FE06C018C080E290E0B30132D1EA9474
:1006F0008E2D90E008171907B0F30DC0F601F7FC36
:100700008591F7FE81916F0190E0B30122D1E11054
:10071000EA94015010400115110581F7E2C09436AA
:1007200011F0993661F5F7FE08C0F501208131819D
:100730004281538184E090E00AC0F501808191817B
:100740009C01442737FD4095542F82E090E0A80E8D
:10075000B91E9FE6F92257FF09C050954095309584
:1007600021953F4F4F4F5F4FE0E8FE2ACA01B90184
:10077000A1012AE030E019D1D82ED2183FC0953718
:1007800029F41F2D1F7E2AE030E01DC01F2D197F88
:100790009F3661F0903720F4983509F0A5C00FC05E
:1007A000903739F0983709F09FC004C028E030E056
:1007B0000AC0106114FD146020E130E004C014FD93
:1007C000166020E132E017FF08C0F50160817181F9
:1007D0008281938144E050E008C0F50180819181DD
:1007E000BC0180E090E042E050E0A40EB51EA10103
:1007F000DCD0D82ED2188FE7F82EF122F6FE0BC0EF
:100800005EEFF522D91438F4F4FE07C0F2FC05C0FF
:100810008FEEF82202C01D2D01C0192DF4FE0DC06F
:10082000FE01ED0DF11D8081803319F499EEF9225E
:1008300008C01F5FF2FE05C003C08F2D867809F047
:100840001F5F0F2DF3FC13C0F0FE0EC01E1510F03D
:100850009D2C0AC09D2C9E0C911A1E2D05C080E275
:1008600090E0B30176D01F5F1E15C8F304C01E15BB
:1008700010F4E11A01C0EE2404FF0EC080E390E002
:10088000B30167D002FF1BC001FD03C088E790E001
:100890000EC088E590E00BC0802F867881F001FFC4
:1008A00002C08BE201C080E2F7FC8DE290E0B30170
:1008B00050D005C080E390E0B3014BD09A94D91496
:1008C000C8F3DA94F101ED0DF11D808190E0B301E0
:1008D00040D0DD20B1F705C080E290E0B30139D00F
:1008E000EA94EE20C9F750CEF30166817781CB01FF
:1008F0002B96E2E1E8C0E199FECF9FBB8EBBE09A68
:1009000099278DB30895FC01059061507040011046
:10091000D8F7809590958E0F9F1F0895FC01615028
:10092000704001900110D8F7809590958E0F9F1F11
:100930000895DC01FC01672F71917723E1F732976D
:1009400004C07C916D9370836291AE17BF07C8F3AA
:1009500008950F931F93CF93DF938C01EB018B814D
:1009600081FF1BC082FF0DC02E813F818C819D8144
:100970002817390764F4E881F9810193F983E88342
:1009800006C0E885F985802F0995892B31F48E8181
:100990009F8101969F838E8302C00FEF1FEFC801D6
:1009A000DF91CF911F910F910895FA01AA27283066
:1009B00051F1203181F1E8946F936E7F6E5F7F4F2C
:1009C0008F4F9F4FAF4FB1E03ED0B4E03CD0670FA8
:1009D000781F891F9A1FA11D680F791F8A1F911DFB
:1009E000A11D6A0F711D811D911DA11D20D009F44B
:1009F00068943F912AE0269F11243019305D31938D
:100A0000DEF6CF010895462F4770405D4193B3E075
:100A10000FD0C9F7F6CF462F4F70405D4A3318F01C
:100A2000495D31FD4052419302D0A9F7EACFB4E0CD
:100A3000A6959795879577956795BA95C9F7009785
:100A40006105710508959B01AC010A2E0694579526
:100A5000479537952795BA95C9F7620F731F841F7D
:100A6000951FA01D0895AA1BBB1B51E107C0AA1F1B
:100A7000BB1FA617B70710F0A61BB70B881F991F3F
:100A80005A95A9F780959095BC01CD0108952F92B4
:100A90003F924F925F926F927F928F929F92AF920E
:100AA000BF92CF92DF92EF92FF920F931F93CF935B
:100AB000DF93CDB7DEB7CA1BDB0B0FB6F894DEBFF2
:100AC0000FBECDBF09942A88398848885F846E8418
:100AD0007D848C849B84AA84B984C884DF80EE8062
:100AE000FD800C811B81AA81B981CE0FD11D0FB66B
:100AF000F894DEBF0FBECDBFED010895F894FFCF8F
:100B0000447A69616C61004E696520647A69616C40
:0E0B10006100253032640073742E2043000013
:00000001FF
