:100000000C9424010C9441010C9441010C94410185
:100010000C9441010C9441010C9441010C94410158
:100020000C9441010C9441010C9441010C94410148
:100030000C9441010C9441010C9441010C94410138
:100040000C9441010C9441010C9441010C94410128
:100050000C9441010C9441010C9441010C94410118
:100060000C9441010C9441010001080006040001B8
:100070004500008200004000200D0A436F6E746549
:100080006E742D547970653A206170706C6963618B
:1000900074696F6E2F782D7777772D666F726D2D5F
:1000A00075726C656E636F6465640D0A0D0A0043BA
:1000B0006F6E74656E742D4C656E6774683A2000BF
:1000C0000D0A557365722D4167656E743A20746729
:1000D000722F312E310D0A4163636570743A202A04
:1000E0002F2A0D0A436F6E6E656374696F6E3A2036
:1000F000636C6F73650D0A000D0A0020485454505C
:100100002F312E310D0A486F73743A2000504F532F
:100110005420000D0A557365722D4167656E743A5F
:10012000207467722F312E300D0A4163636570743D
:100130003A20746578742F68746D6C0D0A436F6E85
:100140006E656374696F6E3A20636C6F73650D0A38
:100150000D0A0020485454502F312E310D0A486F9B
:1001600073743A20004745542000485454502F31AE
:100170002E302034303120556E617574686F72698D
:100180007A65640D0A436F6E74656E742D547970D0
:10019000653A20746578742F68746D6C0D0A0D0AC9
:1001A0003C68313E34303120556E617574686F7231
:1001B000697A65643C2F68313E003C68313E3230DC
:1001C00030204F4B3C2F68313E002E002E002D007A
:1001D0003C666F6E7420636F6C6F723D27626C7546
:1001E00065272073697A653D2735273E3C623E547A
:1001F000656D70657261747572613C2F623E3A2064
:100200003C2F666F6E743E00485454502F312E3090
:1002100020323030204F4B0D0A436F6E74656E7480
:100220002D547970653A20746578742F68746D6CFC
:100230000D0A507261676D613A206E6F2D636163C4
:1002400068650D0A0D0A000011241FBECFEFD8E02B
:10025000DEBFCDBF11E0A0E0B1E0EEEBF4E202C002
:1002600005900D92A234B107D9F714E0A2E4B1E0F1
:1002700001C01D92A53EB107E1F70E943C110C940C
:100280005D120C9400002A98962F9F71982B9EBDAA
:100290000DB407FEFDCF1EBC0DB407FEFDCF67FFFA
:1002A00004C01EBC0DB407FEFDCF2A9A8EB508957A
:1002B0002A986F71682B6EBD0DB407FEFDCF4EBD41
:1002C0000DB407FEFDCF2A9A0895AC01FB012A98D0
:1002D0008AE38EBD0DB407FEFDCF9A01DF0108C091
:1002E0001EBC0DB407FEFDCF215030408EB58D935E
:1002F00021153105A9F7E40FF51F10822A9A0895F8
:100300009C01FB012A988AE78EBD0DB407FEFDCF44
:1003100008C080818EBD0DB407FEFDCF2150304056
:10032000319621153105A9F72A9A08951F93CF9385
:10033000DF93182FC82FD0E0C076D0708091420193
:1003400090E0C817D90791F080EA6FE143E00E947E
:10035000580185E0D595C7958A95E1F780E86FE16A
:100360004C2F0E945801107610934201DF91CF91DB
:100370001F9108951F93182F0E94960180E0612F0E
:100380000E9443011F9108950F931F93182F062F6A
:100390000E94960180E4612F402F0E9458011F9116
:1003A0000F910895682F84ED0E94C40182ED61E0F1
:1003B0000E94C40188E28A95F1F78AEE0E94BA0190
:1003C00080FDFBCF82ED60E00E94C40189ED0E94B8
:1003D000BA0190E008950F931F93982F162F072FBF
:1003E00084ED692F0E94C40186ED612F0E94C40133
:1003F00087ED602F0E94C40118E203C0812F8A9507
:10040000F1F78AEE0E94BA0180FDF8CF1F910F919B
:1004100008950F931F938C01229A2A9A84B18862BF
:1004200084B9249A2B9A2D9A80E58CBD8DB5816074
:100430008DBD8FEF60E04FEF0E94580180E090E0AB
:100440000197F1F7109244011092430188E060E0B7
:100450000E94C40189E060E00E94C4018CE060E079
:100460000E94C4018DE060E00E94C4018AE06FEF49
:100470000E94C4018BE069E10E94C40184E060E055
:100480000E94C40185E06AE10E94C40186E06FEF2A
:100490000E94C40187E06FE10E94C40188E360EB21
:1004A0000E94C40188E26FE30E94C40189E260E314
:1004B0000E94C40180E369EF0E94C40181E367EFF9
:1004C0000E94C40180EC6DE00E94C40181EC60E0F8
:1004D0000E94C40180E862EC42E30E94580186EC6D
:1004E00062E10E94C40187EC6CE00E94C40184ECCC
:1004F00062E10E94C4018AEC6CED0E94C4018BECA5
:1005000065E00E94C40184EEF80160810E94C4018C
:1005100085EEF80161810E94C40182EEF8016281DA
:100520000E94C40183EEF80163810E94C40180EE41
:10053000F80164810E94C40181EEF80165810E9486
:10054000C40180E160E071E00E94EB018FE10E9454
:10055000960180E86BE140EC0E94580180E86FE171
:1005600044E00E9458011F910F91089582E70E9474
:10057000BA01863008F08F5F089581E10E94D201B0
:1005800020E0892B09F021E0822F08950F931F931B
:10059000CF93DF93EC018B010FC08CE10E94BA0175
:1005A00081FF0AC080E86FE140E80E94580180EABC
:1005B0006FE140E80E94580180E06FE10E94430132
:1005C00083FDEBCF82E060E00E94C40183E06AE13A
:1005D0000E94C40186E06C2F0E94C4019E0120503D
:1005E000364E87E0632F0E94C4018AE760E040E056
:1005F0000E945801CE01B8010E94800180E86FE19D
:1006000048E00E945801DF91CF911F910F9108950A
:1006100089E30E94BA01811181E008958F929F922F
:10062000AF92BF92CF92DF92EF92FF920F931F9300
:10063000CF93DF935C014B0189E30E94BA018823C9
:1006400019F4C0E0D0E070C0009143011091440162
:1006500080E0602F0E94C401012F110F110B81E077
:10066000602F0E94C4018AE360E00E944301182FBA
:100670008AE360E00E944301382F20E0E12EFF244E
:10068000E22AF32AF0924401E09243018AE360E017
:100690000E944301C82E8AE360E00E944301D82EE5
:1006A0008AE360E00E944301082F10E08AE360E0E3
:1006B0000E944301382F20E0202B312B27FD03C05F
:1006C000C0E0D0E011C0CC2DD0E09D2D80E0C82B43
:1006D000D92BC501019724978C179D0708F4EC01CD
:1006E000CE01B4010E94650181E0E8168AE1F806B6
:1006F0003CF08CE06FEF0E94C4018DE069E10DC019
:100700006E2D61508CE00E94C4010894E108F1084C
:100710006F2D772767FD7A958DE00E94C40180E8F0
:100720006EE140E40E945801CE01DF91CF911F910C
:100730000F91FF90EF90DF90CF90BF90AF909F9080
:100740008F900895CF92DF92EF92FF920F931F93B5
:10075000CF93DF936C01413081F4685070407B018E
:1007600000E010E0685F7F4F21E130E040E050E0C2
:10077000E20EF31E041F151F15C0423021F0EE24B7
:10078000FF2487010FC0685070407B0100E010E03B
:10079000685F7F4F86E090E0A0E0B0E0E80EF91ED1
:1007A0000A1F1B1FF601EB0116C0808190E0A0E03C
:1007B000B0E0BA2FA92F982F8827218130E040E0A0
:1007C00050E0822B932BA42BB52BE80EF91E0A1FA9
:1007D0001B1F32962297C230D10538F7FB01EE7FFE
:1007E000EC0DFD1D60FF15C0808190E0A0E0B0E041
:1007F000BA2FA92F982F882708C02FEF3FEF40E08E
:1008000050E0E222F32204231523E80EF91E0A1F0A
:100810001B1FC801AA27BB270097A105B10569F7CF
:10082000970120953095C901DF91CF911F910F91CC
:10083000FF90EF90DF90CF900895CF93DF93EC017E
:1008400050934C014093070120E030E0F901E95852
:10085000FE4FDB01A20FB31F8C9180832F5F3F4FB0
:100860002430310599F720E030E0F901EF58FE4FD0
:10087000DE01A20FB31F8C9180832F5F3F4F263084
:10088000310599F7DF91CF910895DC0120E030E048
:10089000FB01E20FF31F5A969C915A97808198179B
:1008A00011F080E008952F5F3F4F119624303105FD
:1008B00079F781E00895FC0169327105B0F0848513
:1008C000883099F48585863081F4DF019696E7E7D4
:1008D000F1E09C918081981741F41196319681E066
:1008E000EB37F807B1F781E0089580E00895FC0147
:1008F0006A327105D0F084858830B9F48585882303
:10090000A1F48685853489F4DF01E7E7F1E05E969E
:100910009C915E978081981741F41196319681E001
:10092000EB37F807A1F781E0089580E00895FC0116
:10093000A1E7B1E0868180838D918683319681E045
:10094000A737B807B9F708950F931F938C01FC01DF
:10095000108E118E80E4848B158A868BC8010E96CA
:1009600064E170E040E00E94A203F801908F818F63
:100970001F910F910895AC01FC01A7E7B1E0828DB2
:10098000868F8D91828F319681E0AB37B807B9F7AA
:10099000CA010E94A4040895FC01B99694E08081E4
:1009A000680F711D84816483442311F0808301C02A
:1009B000108291503197992319F0672F7727EFCF45
:1009C00008950F931F938C01FC0194A182A184A32D
:1009D00092A395A183A185A393A3C8010E94CC04EF
:1009E000F80112AA13AA80E586A71F910F91089516
:1009F000FC01908980E02189422F50E0482B592B3F
:100A000026A5822F82958F7090E0880F991F880FFE
:100A1000991F481B590B4451504057FF02C040E0FA
:100A200050E0CA0108956A5C7F4FDC01A60FB71F32
:100A30006653704003C08D936F5F7F4FFA014F5F25
:100A40005F4F84918823B9F7CB0108956A5C7F4F8B
:100A5000DC01A60FB71F6653704003C08D936F5F14
:100A60007F4FFA014F5F5F4F84918823B9F7CB0125
:100A70000895DA016A5C7F4FFC01E60FF71F6653A9
:100A80007040922F03C08D91819391509923D9F793
:100A9000CB01820F911D0895DC01FA0105C08491FC
:100AA0008D9331966150704061157105C1F70895BD
:100AB000FF920F931F93CF93DF93EC01F62E072F36
:100AC000BA01122F932FAE019E01A0E0B0E0FD010C
:100AD000E559FE4F8081F9018083FD01EF58FE4FFB
:100AE0008081F901868311962F5F3F4FA630B105B3
:100AF00071F788E08C871D86DE01E0E7F0E08491E5
:100B00001E968C931E973196119680E0E937F80770
:100B1000B1F7188A81E18F8BA0E0B0E0FB01EA0F0A
:100B2000FB1F8081FA01868FFD01E958FE4F80810D
:100B3000FA01828F11964F5F5F4FA430B10571F7B4
:100B40009CA31DA30AA3FBA21EA218A619A6DF91AF
:100B5000CF911F910F91FF90089580914501869547
:100B6000809581700895CF93DF93EC01E7E6F1E083
:100B7000DC015C969C915C978081981711F080E075
:100B800010C01196319681E0EB36F80791F7EBE64D
:100B9000F1E08E898193219681E0E137F807C9F76A
:100BA00081E0DF91CF9108958091450181FF03C0DD
:100BB0008460809345010895AC0181E080934501F4
:100BC00020E030E0F901E959FE4FDA01A20FB31F2E
:100BD0008C9180832F5F3F4F2430310599F7089522
:100BE000AC0120E030E0F901EF5AFE4FDA01A20F2C
:100BF000B31F8C9180832F5F3F4F2430310599F7CD
:100C00000895909356018093550170935801609315
:100C10005701509348014093490181E08093460178
:100C2000809147018F5F80934701883010F01092C8
:100C300047018091470108959093600180935F017F
:100C4000709362016093610150936401409363016A
:100C500010924F0130935A012093590184E696E097
:100C600069ED76E040E550E00E9401068093500176
:100C700008950F931F939093600180935F01709389
:100C800064016093630150935C0140935B01309376
:100C90005E0120935D0181E080934F0110935A0122
:100CA0000093590184E696E069ED76E040E550E076
:100CB0000E940106809350011F910F910895909317
:100CC0006601809365010895EF92FF920F931F9341
:100CD000CF93DF93790190915001891759F0E091FA
:100CE0005901F0915A0184E060E070E040E050E08A
:100CF000099536C06623A1F52D30310588F1C091E4
:100D00005901D0915A01209759F100914A0110914F
:100D10004B01475F5F4F400F511F80E091E0BA01E8
:100D200043E050E00E941612F80166A5009759F4BE
:100D300062956F7070E0660F771F660F771F6E5DAC
:100D40007F4F80E00AC062956F7070E0660F771F7A
:100D5000660F771F6E5D7F4F81E0A701FE01099549
:100D600080E0DF91CF911F910F91FF90EF90089558
:100D7000CF93DF93DA010D900020E9F71197A41BC0
:100D80006A5C7F4FEC01C60FD71F66537040FA01B3
:100D9000B0E09A012A0F3B1F02C081918993E217AC
:100DA000F307D9F79B012A0F3B1FC901DF91CF91B0
:100DB0000895EF92FF920F931F93DF93CF9300D08C
:100DC00000D00F92CDB7DEB790915001891719F07E
:100DD00040E050E06DC180914F0100914A011091B7
:100DE0004B01882309F06BC0D801D69660E070E013
:100DF00003C08D936F5F7F4FFB01EB59FE4F8491D2
:100E00008823B9F76A5C7F4FD801A60FB71F6653D6
:100E1000704080915F01909160019C0103C08D93AF
:100E20006F5F7F4FF9012F5F3F4F84918823B9F7A0
:100E30004091610150916201C8010E94B806AC0165
:100E400060914A0170914B014A5C5F4FDB01A40F36
:100E5000B51F4653504083E591E003C02D934F5F8B
:100E60005F4FFC01019624912223C1F74A5C5F4F3A
:100E7000DB01A40FB51F4653504080916301909150
:100E800064019C0103C08D934F5F5F4FF9012F5F99
:100E90003F4F84918823B9F74A5C5F4FDB01A40F71
:100EA000B51F4653504083E191E003C02D934F5F3F
:100EB0005F4FFC01019624912223C1F7F9C0D801AC
:100EC000D696EE24FF2404C08D930894E11CF11CF7
:100ED000F701E35FFE4F84918823B1F786E390E04A
:100EE000E80EF91ED801AE0DBF1D8AEC9FEFE80E8B
:100EF000F91E80915F01909160019C0104C08D9367
:100F00000894E11CF11CF9012F5F3F4F8491882365
:100F1000B1F786E390E0E80EF91ED801AE0DBF1DD3
:100F20008AEC9FEFE80EF91E8BEF90E004C02D9342
:100F30000894E11CF11CFC01019624912223B9F7CD
:100F400086E390E0E80EF91ED801AE0DBF1D8AECD5
:100F50009FEFE80EF91E80916301909164019C015E
:100F600004C08D930894E11CF11CF9012F5F3F4FE1
:100F700084918823B1F740915B0150915C01411548
:100F8000510569F186E390E0E80EF91ED801AE0D37
:100F9000BF1D8AEC9FEFE80EF91E88EF90E004C0B9
:100FA0002D930894E11CF11CFC010196249122234D
:100FB000B9F786E390E0E80EF91ED801AE0DBF1D2B
:100FC0008AEC9FEFE80EF91ECA0104C02D93089425
:100FD000E11CF11CFC01019624912223B9F786E360
:100FE00090E0E80EF91ED801AE0DBF1D8AEC9FEF10
:100FF000E80EF91E80EC90E004C02D930894E11CEB
:10100000F11CFC01019624912223B9F786E390E0BC
:10101000E80EF91ED801AE0DBF1D8AEC9FEFE80E59
:10102000F91E8FEA90E004C02D930894E11CF11C96
:10103000FC01019624912223B9F7E0915D01F09122
:101040005E01DF010D900020E9F71197CD018E1BA5
:101050009F0B8E010F5F1F4FB8014AE050E00E94C6
:10106000341280914A0190914B01B701A8010E946E
:10107000B806BC0180914A0190914B016A5C7F4F98
:10108000DC01A60FB71F6653704029E730E003C0AC
:101090004D936F5F7F4FF9012F5F3F4F4491442382
:1010A000B9F740915D0150915E010E94B806AC0114
:1010B000CA010F900F900F900F900F90CF91DF917A
:1010C0001F910F91FF90EF900895FF920F931F9340
:1010D000CF93DF93EC01F62E142F022FAC01DC012D
:1010E00020E030E0F901E559FE4F80818C93F90151
:1010F000EF58FE4F808116968C9316972F5F3F4FC7
:1011000011962630310571F788E08C871D86DE0147
:10111000E0E7F0E084911E968C931E97319611962D
:1011200080E0E937F807B1F78CE2898B86E08F8B96
:1011300020E030E0F901EF5AFE4F8081FA01868FFE
:10114000F901E958FE4F8081FA01828F2F5F3F4FEE
:101150004F5F5F4F2430310569F7CE010E94A40430
:101160001CA30DA38BE08AA3FBA2FE01B69680E030
:1011700011928F5F8830E1F78091080188A78D5F19
:101180008093080180E68EA792E09FA783E088AB5A
:1011900019AA1AAA1BAA1CAA1DAA9EAB84E08FAB8F
:1011A00098AF86E289AFCE014A9660E270E042E0F5
:1011B0000E94A2039AAB8BAB8AE390E0BE010E942F
:1011C000C602DF91CF911F910F91FF900895CF93A9
:1011D000DF93EC01AC0121E731E0FC01D9019FEF85
:1011E00090838D918683319681E0A737B807C1F748
:1011F00088E08C8786E08D87DE01E8E6F0E0849168
:101200001E968C931E973196119680E0E037F80772
:10121000B1F7F90181919F01FA01868B10A24F5F0E
:101220005F4FF1E027373F07A1F7DE015C9620E032
:1012300030E0FB01E20FF31F80811A968C931A971E
:10124000F901E958FE4F80818D932F5F3F4F243085
:10125000310579F7809145018860809345018AE2E4
:1012600090E0BE010E94C602DF91CF910895EF92F7
:10127000FF920F931F937C01062F045EFC01018BEC
:101280000E94A4040451F70107A3085010E0005F76
:101290001F4FC7014A96B80141E00E94A203F7011F
:1012A00090A781A7C8014A96B7010E94C6021F9164
:1012B0000F91FF90EF900895AF92BF92DF92EF925F
:1012C000FF920F931F93CF93DF93EC015B01D42E1A
:1012D000A801B90197010E9458056D2D6D3D08F0D8
:1012E0006CEDDE019A9620E030E007C0F501E20FD8
:1012F000F31F80818D932F5F3F4F2617B8F3CE01E8
:101300000E943709DF91CF911F910F91FF90EF90CD
:10131000DF90BF90AF900895EF92FF920F931F93CD
:101320008C017B01CB018896F801908B818BC801E1
:101330000E94A404F80112AA13AA8CE190E0E80E1E
:10134000F91EC8014A96B70142E00E94A203F801C3
:1013500092AB83ABC7014A96B8010E94C6021F91A7
:101360000F91FF90EF900895EF92FF921F93CF930C
:10137000DF93EC017B01142F0E949704812F806181
:101380008FA7143031F0E114F10419F4A1E0EA2E32
:10139000F12CCE01B70141E00E94E104188A88E2F5
:1013A000898BCE010E94BB0484E088AB19AACE01D0
:1013B0004A966CE170E042E00E94A2039AAB8BABCC
:1013C00086E390E0BE010E94C602DF91CF911F919B
:1013D000FF90EF900895EF92FF920F931F938C016F
:1013E0007B0160914D0170914E0140E00E94B40973
:1013F00089E1F80187A7C801B7010E948C091F91F4
:101400000F91FF90EF9008950F931F938C010E940E
:101410009704F801108A8CE2818BC8010E94BB04FA
:1014200082E1F80187A7C80161E070E040E00E9416
:10143000E104F80116A217A28091080180A711A665
:101440008D5F8093080182E086AB84E087AB95E0F6
:1014500090AF11AE80E686A790AB88E781ABC8015C
:101460004A9660E270E042E00E94A203F80192AB6B
:1014700083AB8AE390E0B8010E94C6021F910F91EE
:101480000895DF92EF92FF920F931F93CF93DF9314
:10149000EC017B01142FD22E032F0E9497041D3DD7
:1014A00008F01CED188A145E198BCE010E94BB0453
:1014B0008AA18CA38BA18DA30AA3DBA21EA2145127
:1014C0001FA3185018A619A6DE019A9620E030E056
:1014D00007C0F701E20FF31F80818D932F5F3F4F0D
:1014E0002117B8F3012F10E0005F1F4FCE014A967D
:1014F000B80141E00E94A20398A789A7C8014A96B3
:10150000BE010E94C602DF91CF911F910F91FF9003
:10151000EF90DF9008950F931F93CF93DF93EC012B
:101520008B010E949704CE010E94BB041AA28CA1D9
:10153000883F18F08DA18F5F8DA38CA1885F8CA34D
:10154000C801BE010E94C602DF91CF911F910F9189
:101550000895CF93DF93EC010E9497041C8A82E0E8
:101560008D8BFE01A1E7B1E0868980A38D91868BEA
:10157000319681E0A737B807B9F7FE017C96A7E757
:10158000B1E0808182878D91819381E0AB37B8078C
:10159000C1F78AE290E0BE010E94C602DF91CF91BE
:1015A0000895DF92EF92FF920F931F93CF93DF93F3
:1015B0008C017B0161157105E1F580914501857014
:1015C00079F08091040190910501892B49F40E94E2
:1015D000BD02882329F0C80167E671E00E94E70890
:1015E00080910401909105010196909305018093EB
:1015F000040180914601813009F051C1809145017B
:1016000081FF4DC182E080934601809106018F5F8A
:10161000809306018F71609147016295660F607E2D
:10162000682BC80140914801209149010E9465083A
:1016300036C10E945B048823D9F0D80155968C915D
:10164000813019F4C8010E94A90A8091450183FFE5
:1016500026C1F801F588F2E0FF1609F020C1C801A3
:101660000E94B305882309F41AC1F092450117C1FD
:10167000C801B7010E947704882309F410C1D8017A
:1016800057969C915797913091F492968C9188300F
:1016900071F4E0916501F0916601309719F0C8018D
:1016A0004A960995C801B7010E948B0AF8C0B6E3B3
:1016B000EB16F10418F4963009F0F1C0F80194A18A
:1016C0009B3009F0AFC010934B0100934A01C80151
:1016D00061E571E00E944504882309F4E0C0D80167
:1016E0009F968C919F97D82E82FF13C0E091550151
:1016F000F0915601309709F48BC095968C918295A4
:101700008695877063E040E050E020E030E0099586
:101710007FC0C8010E94F804EC018091460182302C
:1017200099F5D1FE23C0D4FE21C0C80160E070E06D
:1017300040E00E94B40988E1F80187A7E0915701D1
:10174000F0915801309719F460E070E008C0D801BA
:1017500093968C918295869587700995BC0183E05C
:1017600080934601C8010E948C0999C081E0809352
:101770004601D4FE03C060E070E003C0BE016F5FAD
:101780007F4FC80144E075C0833099F5209789F1F7
:1017900084E080934601E0915501F0915601309725
:1017A00041F1D8019E968C9182958F70482F50E020
:1017B000440F551F440F551FC70108974E5D5F4FDB
:1017C0008417950708F4AC01CA018C0F9D1FE81619
:1017D000F90610F09E0103C09701241B350BD801B8
:1017E00095968C9182958695877060E009958823FF
:1017F00051F480914601853009F451C0F80187A564
:1018000080FF0AC02196C801BE0149E00E94B409C8
:1018100085E08093460143C0209709F442C0C80187
:10182000BE0126C080914C019817C9F5D801959644
:101830009C91959780910701981789F59F968C91B7
:1018400081FF04C0C8010E94040A29C084FF27C088
:10185000C8010E94F80490934E0180934D01892B9A
:1018600059F4F80187A580FF1AC0C80160E070E054
:1018700040E00E94B40913C0D8019E968C918295D5
:101880008F70C82FD0E0CC0FDD1FCC0FDD1FA296CC
:10189000E8EFFFEFEE0EFF1EEC16FD0610F4C0E0C1
:1018A000D0E0CE01DF91CF911F910F91FF90EF908B
:1018B000DF900895DC0120E040E050E098E115C0A1
:1018C000FD01E40FF51FE08138E08E2F8227F82F0D
:1018D000F17080FD29272695F13009F420683150F8
:1018E00011F0E695F2CF4F5F5F4F4617570741F76C
:1018F000822F0895AF92BF92DF92EF92FF920F93E3
:101900001F93DF93CF93CDB7DEB760970FB6F894F0
:10191000DEBF0FBECDBFD82E7A015901DE01119670
:10192000E9E0F1E080E101900D928150E1F7FB01E7
:101930008081482F50E0918180E0482B592BF0E1C5
:10194000DF1679F4CA018E7F33E0880F991F3A952C
:10195000E1F7FB0126814CE050E0421B5109480FA2
:10196000591F57FF07C081E0F701808350954195CB
:101970005F4F02C0F7011082F8E2DF1699F4FB0115
:101980008481682F70E0CB0180769070803691055D
:1019900049F066FF02C04E7F05C065FF02C04C7F64
:1019A00001C0487FCA0124E0969587952A95E1F702
:1019B000F5018083842F8F70FE01E80FF11D818176
:1019C000F801808380E060960FB6F894DEBF0FBE0A
:1019D000CDBFCF91DF911F910F91FF90EF90DF90DE
:1019E000BF90AF900895882319F0709561957F4F4F
:1019F000442319F0309521953F4F621773071CF46B
:101A00004FEF5FEF07C040E050E02617370714F4B0
:101A100041E050E0CA0108957F928F929F92AF9269
:101A2000BF92CF92DF92EF92FF920F931F93DF93BB
:101A3000CF93CDB7DEB729970FB6F894DEBF0FBEB0
:101A4000CDBF782E6B015A0149018EEB60E070E04A
:101A50000E94E50E8E010F5F1F4F4AE0E42EF12C2D
:101A6000EC0EFD1E0E94950EF80181938F01EE157C
:101A7000FF05C1F77E010894E11CF11CC70169E074
:101A800070E00E945A0C882311F083E008C0872D73
:101A9000B701A601950184010E947A0C80E0299685
:101AA0000FB6F894DEBF0FBECDBFCF91DF911F916F
:101AB0000F91FF90EF90DF90CF90BF90AF909F90ED
:101AC0008F907F9008956F927F928F929F92AF92A6
:101AD000BF92CF92DF92EF92FF920F931F93DF930B
:101AE000CF93CDB7DEB729970FB6F894DEBF0FBE00
:101AF000CDBF6C015B014A0139010E945A0E8EEB89
:101B0000B6010E94E50E8E010F5F1F4F5AE0E52ED1
:101B1000F12CEC0EFD1E0E94950EF80181938F01B1
:101B2000EE15FF05C1F77E010894E11CF11CC70109
:101B300069E070E00E945A0C882311F083E009C02C
:101B4000F6018081B701A501940183010E947A0CFE
:101B500080E029960FB6F894DEBF0FBECDBFCF91BF
:101B6000DF911F910F91FF90EF90DF90CF90BF908A
:101B7000AF909F908F907F906F9008951F93CF9319
:101B8000DF93182FEB010E945A0E0E94510E8823FA
:101B900011F482E009C084E4BE010E94E50E113018
:101BA00011F00E94540E80E0DF91CF911F910895B3
:101BB0000F931F938C010E945A0E84EBB8010E9470
:101BC000E50E81E00E94710E182F0E945A0E11112D
:101BD00011E0812F1F910F9108950F931F93CF93C1
:101BE000DF938C01EB01F8018081BE010E94990E08
:101BF000F801808381508D3F28F48881883211F06C
:101C0000803189F7DF91CF911F910F910895CF9285
:101C1000DF92EF92FF921F93DF93CF93CDB7DEB7A2
:101C200029970FB6F894DEBF0FBECDBF8FEF898323
:101C300010E062E0E62EF12CEC0EFD1E6E01089421
:101C4000C11CD11C19C0C601B7010E94ED0D8981CC
:101C50008F3FC1F08E3FB1F020E030E0F901E25358
:101C6000FB4FD701A20FB31F8C9180832F5F3F4F93
:101C700011E02830310591F78981882319F011236B
:101C800011F311E0812F29960FB6F894DEBF0FBE35
:101C9000CDBFCF91DF911F91FF90EF90DF90CF905C
:101CA000089586B180720895459A3D9A08954598A1
:101CB0003D98089545983D9A80EA8A95F1F78FB747
:101CC000F8943D9896E19A95F1F796B18FBF8AE81E
:101CD0008A95F1F7359902C081E00895892F8072C5
:101CE00008952FB7F8943D9A91E09A95F1F78111F4
:101CF0003D9895E09A95F1F7359B80E09FE09A95A5
:101D0000F1F73D982FBF08950F931F93182F08E008
:101D1000812F81700E94710E1695811110680150FB
:101D2000B9F7812F1F910F9108958FEF0E94840EB4
:101D30000895DF92EF92FF920F931F93CF93DF935B
:101D4000E82EEB010E945A0E8823A1F580EF0E9435
:101D5000840E80E4FF24182F98EFD92ED80E81E04E
:101D60000E94710E082F81E00E94710E882329F0D5
:101D7000002371F08EEFF82E1FC0002349F41E15CA
:101D800028F0888180FF04C0E11611F0F12E01E0F7
:101D9000802F0E94710E888186958883002311F020
:101DA0008068888311501D15D1F6112329F02196E2
:101DB000812FD1CFFF24FA948F2DDF91CF911F91E6
:101DC0000F91FF90EF90DF9008950F931F93CF93A3
:101DD000DF93082FEB010E945A0E209751F085E502
:101DE0000E94840E18E089910E94840E1150D9F748
:101DF00003C08CEC0E94840E802F0E94840EDF9121
:101E0000CF911F910F91089580FF02C05B9A01C08E
:101E10005B9881FF02C05C9A01C05C9882FF02C09F
:101E20005D9A01C05D9883FF02C05E9A08955E9836
:101E3000089589B190E023E0969587952A95E1F77A
:101E400081704C9982604D9984604E9988600895A4
:101E50001F935698559854985398599A5F9A0E9490
:101E6000190F182F1295107F5F985F9A0E94190F13
:101E70005F98812B1F91089558980E94280F08950C
:101E80001F93182F569A559A549A539A59985F9AB5
:101E900082958F700E94040F5F985F9A812F0E9435
:101EA000040F5F980E943C0F87FDFCCF1F9108959F
:101EB00058980E94400F0895589A0E94400F089524
:101EC000982F8058883008F49770892F0E945C0FF3
:101ED0000895CF93DF93EC0108C0892F8058883094
:101EE00008F49770892F0E945C0F99919923A9F7A4
:101EF000DF91CF910895CF93DF93EC010AC0892F32
:101F00008058883010F0892F02C0892F87700E9476
:101F10005C0FFE0121969491992389F7DF91CF916F
:101F200008951F93CF93DF93EB0190E0877090703B
:101F30000896880F880F880F0E94580F10E089912B
:101F40000E945C0F1F5F1830D1F7DF91CF911F9176
:101F500008950F931F93CF93DF938B0190E08770C9
:101F600090700896880F880F880F0E94580FC0E065
:101F7000D0E0F801EC0FFD1FE4918E2F0E945C0F62
:101F80002196C830D105A9F7DF91CF911F910F910C
:101F90000895813009F480E46058860F0E94580F3C
:101FA000089581E00E94580F08951F93569A559AFC
:101FB000549A539A509A579A519A589A5F9A599AA2
:101FC00086EA9EE00197F1F75F98589859985F9AD2
:101FD00083E00E94040F5F9881E094E00197F1F79D
:101FE0005F9A83E00E94040F5F9811E2812F8A9527
:101FF000F1F75F9A83E00E94040F5F98812F8A9522
:10200000F1F75F9A82E00E94040F5F981A95F1F74A
:1020100088E20E94580F88E00E94580F8CE00E94CE
:10202000580F86E00E94580F0E94D10F1F9108950B
:102030000F931F93CF93DF938B0190E08770907085
:102040000896880F880F880F0E94580FC0E0D0E0D4
:10205000C8018C0F9D1F0E9455120E945C0F219693
:10206000C830D105A9F7DF91CF911F910F91089545
:10207000CF93DF93EC0121960E945512982F815047
:102080008E3F48F48F57883008F49770892F0E944C
:102090005C0FCE01EFCFDF91CF910895DF93CF9307
:1020A000CDB7DEB761970FB6F894DEBF0FBECDBFD8
:1020B000BE016F5F7F4F4AE050E00E9434120E94E1
:1020C000690F61960FB6F894DEBF0FBECDBFCF91FA
:1020D000DF9108959F92AF92BF92CF92DF92EF92DD
:1020E000FF920F931F93CF93DF93EC016B01B42EFC
:1020F000922E97FD02C0AA2406C0D095C195DF4F4D
:10210000BA94AA24A39476010894E11CF11C8601D8
:10211000CE016AE070E00E94EF11CD2B31F4C016C1
:10212000D10619F0F801908203C0805DF801808328
:10213000F701BA940894E11CF11C0F5F1F4FEB01EB
:102140001B1434F3AA2011F08DE281931082C60192
:102150000E942412C601DF91CF911F910F91FF9031
:10216000EF90DF90CF90BF90AF909F900895682F31
:1021700081E00E94C90F8091DE04882319F089E173
:1021800091E002C08BE191E00E94690F8091E3042D
:1021900090E00E944E108DE191E00E94690F8091C5
:1021A000D60490E00E944E108FE191E00E94690FEA
:1021B00008958BE791E060E070E048E052E00E9413
:1021C00013050895CF93DF93EC018091E30490E031
:1021D0006FED74E042E020E20E946A109093DB040D
:1021E0008093DA048091D60490E067ED74E041E0DA
:1021F00020E20E946A109093DD048093DC048BE758
:1022000091E060E070E048E052E00E941305BC01FC
:10221000CE0140ED51E00E941305BC018091DE0427
:10222000882391F0CE014EEC51E00E941305BC01D1
:102230004091DA045091DB04CE010E94B806BC0143
:10224000CE014CEC51E00BC04091DA045091DB041C
:10225000CE010E94B806BC01CE014AEC51E00E94BA
:102260001305BC014091DC045091DD04CE010E94B5
:10227000B806DF91CF910895CF92DF92EF92FF924F
:102280000F931F93DF93CF93CDB7DEB72D970FB684
:10229000F894DEBF0FBECDBF219A299A0E94D50FB8
:1022A000DE011196EBE2F1E08DE001900D9281509C
:1022B000E1F70E94070E8093E40488E391E00E9416
:1022C000090284E166E774E00E94EB0188E391E093
:1022D0006EE371E040E550E00E941D0478946E01C9
:1022E0000894C11CD11C89E1E82EF12C8091E304F3
:1022F0008A3010F40E94D10F80E060E00E94C90F84
:10230000C6010E94690F81E060E070E00E94BE0D8E
:102310008CE49DE1F7013197F1F70197D9F78091AE
:10232000E40490E00E944E108EEC94E06EED74E0B8
:1023300043EE54E026ED34E00E94630D882319F447
:1023400085E00E94B71082E593E06BE771E00E94A0
:102350000E03BC018BE791E00E94D10A8C0100972B
:1023600029F2BC0165587E4F83E291E044E050E0E1
:102370000E941612009771F08BE791E060E070E028
:1023800048E052E00E941305BC018BE791E04AEB64
:1023900051E016C001581E4F88E291E0B80142E0BA
:1023A00050E00E941612009729F48BE791E00E94FA
:1023B000E21008C08BE791E060E070E04AE651E08F
:1023C0000E941305BC018BE791E00E94EB0980E5B8
:1023D00093ECF7013197F1F70197D9F787CF97FB86
:1023E000092E07260AD077FD04D00CD006D0002095
:1023F0001AF4709561957F4F0895F6F79095819541
:102400009F4F0895AA1BBB1B51E107C0AA1FBB1F0A
:10241000A617B70710F0A61BB70B881F991F5A9570
:10242000A9F780959095BC01CD010895FB01DC01D1
:102430004150504030F08D910190801919F40020E6
:10244000B9F7881B990B0895DC01FC01672F719186
:102450007723E1F7329704C07C916D93708362918A
:10246000AE17BF07C8F30895FB019F01E8944230FF
:10247000C4F04532B4F44A3029F497FB1EF4909529
:1024800081959F4F642F77270E940212805D8A33C7
:102490000CF0895D8193CB010097A1F716F45DE202
:1024A00051931082C9010C942412F999FECF92BD68
:0E24B00081BDF89A992780B50895F894FFCF62
:1024BE0032303000010001500A0001010202030413
:1024CE000405060607070809092D0020002E002026
:1024DE0043200047455420002F200054656D706541
:1024EE007261747572613A0000BE130D1CE6C0A8CD
:0224FE00016477
:00000001FF
