:1000000012C024C023C022C021C020C01FC01EC0F7
:100010001DC01CC01BC01AC019C018C017C016C014
:1000200015C014C013C011241FBECFE5D4E0DEBF3D
:10003000CDBF10E0A0E6B0E0E2E5F3E002C005903D
:100040000D92AE3BB107D9F781D181C1D9CFFC0167
:1000500081E080831282118208950895C09A0895E4
:10006000C09808950895DF93CF93CDB7DEB7299751
:100070000FB6F894DEBF0FBECDBFFE01319689E00A
:10008000DF011D928A95E9F781E4898394E59A83DB
:100090008BE28B8382E58C8383E58D839E83CF0106
:1000A00066E070E033D129960FB6F894DEBF0FBE3C
:1000B000CDBFCF91DF910895DF93CF93CDB7DEB75A
:1000C00028970FB6F894DEBF0FBECDBFDE011196A4
:1000D000E6E9F0E088E001900D928150E1F7CE0171
:1000E000019668E070E012D128960FB6F894DEBF52
:1000F0000FBECDBFCF91DF910895DF93CF9300D096
:1001000000D000D0CDB7DEB7DE011196EEE9F0E009
:1001100086E001900D928150E1F7CE01019666E0F4
:1001200070E0F4D026960FB6F894DEBF0FBECDBFB8
:10013000CF91DF9108950F931F93DF93CF93CDB7A6
:10014000DEB769970FB6F894DEBF0FBECDBFFC01D6
:100150008B01E081E13071F4DE011D96E6E7F0E00D
:100160008DE001900D928150E1F7CE010D966DE08A
:1001700070E011C0E23011F081E013C0DE01119691
:10018000EAE6F0E08CE001900D928150E1F7CE01BB
:1001900001966CE070E0BAD0C80166E070E0C6D0AD
:1001A00080E069960FB6F894DEBF0FBECDBFCF9149
:1001B000DF911F910F9108950F931F93DF93CF93BA
:1001C000CDB7DEB763970FB6F894DEBF0FBECDBFD5
:1001D000FC018B01E081E13071F4DE011A96ECE85C
:1001E000F0E08AE001900D928150E1F7CE010A968D
:1001F0006DE070E011C0E23011F081E013C0DE016B
:100200001196E3E8F0E089E001900D928150E1F76A
:10021000CE01019669E070E079D0C80164E070E039
:1002200085D080E063960FB6F894DEBF0FBECDBFD9
:10023000CF91DF911F910F910895EF92FF920F934D
:100240001F93DF93CF93CDB7DEB72A970FB6F894FD
:10025000DEBF0FBECDBF182F092FF62EE72EDE0111
:100260001296E4EAF0E089E001900D928150E1F706
:100270008CE28983CE01029669E070E047D0E12FDD
:10028000F02FDF010D900020E9F71197AE1BBF0B97
:10029000812F902FBD013AD0CE01019661E070E030
:1002A00035D0EF2DFE2DDF010D900020E9F71197DD
:1002B000AE1BBF0B8F2D9E2DBD0128D02A960FB6E9
:1002C000F894DEBF0FBECDBFCF91DF911F910F918C
:1002D000FF90EF9008955D9BFECF8CB9089501C00B
:1002E0008CB15F99FDCF089590BD89B988E18AB935
:1002F0008EE880BD08955D9BFECF509890FD509A8A
:100300008CB908955F9BFECF8CB1089520E030E05A
:1003100009C0FC01E20FF31FE0815D9BFECFECB949
:100320002F5F3F4F26173707A0F3089520E030E0F6
:1003300009C0FC01E20FF31FE0815D9BFECFECB929
:100340002F5F3F4F26173707A0F30895FFCFF8948C
:02035000FFCFDD
:10035200C0A8010500BE130D1CE641542B434950B1
:1003620041504D41433D41542B4349505354414D1B
:1003720041433D41542B43495041503D41542B434D
:1003820049505354413D41542B43575141504154DC
:100392002B52535441542B43574A41503D4B3744FF
:0E03A200305A52314D3332424C4956354200EA
:00000001FF
