:1000000012C024C023C022C021C020C01FC01EC0F7
:100010001DC01CC01BC01AC019C018C017C016C014
:1000200015C014C013C011241FBECFE5D4E0DEBF3D
:10003000CDBF10E0A0E6B0E0E6E0F3E002C005903E
:100040000D92AE3AB107D9F75BD15BC1D9CFFC01B4
:1000500081E08083128211820895C09A0895C09829
:1000600008950895DF93CF93CDB7DEB728970FB6E5
:10007000F894DEBF0FBECDBFDE011196E6E9F0E0D9
:1000800088E001900D928150E1F7CE01019668E081
:1000900070E016D128960FB6F894DEBF0FBECDBF24
:1000A000CF91DF910895DF93CF9300D000D000D09F
:1000B000CDB7DEB7DE011196EEE9F0E086E0019003
:1000C0000D928150E1F7CE01019666E070E0F8D024
:1000D00026960FB6F894DEBF0FBECDBFCF91DF914D
:1000E00008950F931F93DF93CF93CDB7DEB7699732
:1000F0000FB6F894DEBF0FBECDBFFC018B01E081CF
:10010000E13071F4DE011D96E6E7F0E08DE001904C
:100110000D928150E1F7CE010D966DE070E011C0B7
:10012000E23011F081E013C0DE011196EAE6F0E062
:100130008CE001900D928150E1F7CE0101966CE0C8
:1001400070E0BED0C80166E070E0CAD080E0699679
:100150000FB6F894DEBF0FBECDBFCF91DF911F91D8
:100160000F9108950F931F93DF93CF93CDB7DEB711
:1001700063970FB6F894DEBF0FBECDBFFC018B01B5
:10018000E081E13071F4DE011A96ECE8F0E08AE0FB
:1001900001900D928150E1F7CE010A966DE070E07A
:1001A00011C0E23011F081E013C0DE011196E3E8E6
:1001B000F0E089E001900D928150E1F7CE010196C7
:1001C00069E070E07DD0C80164E070E089D080E033
:1001D00063960FB6F894DEBF0FBECDBFCF91DF910F
:1001E0001F910F910895EF92FF920F931F93DF934A
:1001F000CF93CDB7DEB72A970FB6F894DEBF0FBE08
:10020000CDBF182F092FF62EE72EDE011296E4EA55
:10021000F0E089E001900D928150E1F78CE2898352
:10022000CE01029669E070E04BD0E12FF02FDF01A4
:100230000D900020E9F71197AE1BBF0B812F902F77
:10024000BD013ED0CE01019661E070E039D0EF2DC6
:10025000FE2DDF010D900020E9F71197AE1BBF0BBB
:100260008F2D9E2DBD012CD02A960FB6F894DEBF9F
:100270000FBECDBFCF91DF911F910F91FF90EF90F7
:10028000089589E190E00AD008955D9BFECF8CB976
:10029000089501C08CB15F99FDCF089590BD89B9D3
:1002A00088E18AB98EE880BD08955D9BFECF5098A5
:1002B00090FD509A8CB908955F9BFECF8CB1089544
:1002C00020E030E009C0FC01E20FF31FE0815D9BFC
:1002D000FECFECB92F5F3F4F26173707A0F30895E5
:1002E00020E030E009C0FC01E20FF31FE0815D9BDC
:1002F000FECFECB92F5F3F4F26173707A0F30895C5
:06030000FFCFF894FFCFCF
:10030600C0A8010500BE130D1CE641542B434950FD
:1003160041504D41433D41542B4349505354414D67
:1003260041433D41542B43495041503D41542B4399
:1003360049505354413D41542B4357514150415428
:0E0346002B52535441542B43574A41503D0013
:00000001FF
