:1000000012C02CC02BC02AC029C028C027C026C0BF
:1000100025C024C023C022C021C020C01FC01EC0D4
:100020001DC01CC01BC011241FBECFE5D4E0DEBF25
:10003000CDBF10E0A0E6B0E0EAE8F8E002C005902D
:100040000D92A636B107D9F710E0A6E6B0E001C0E0
:100050001D92AF38B107E1F7B3D315C4D1CFDC019E
:10006000FB01218130E0908180E0282B392B119613
:100070003C932E93928180E0238130E0822B932B5E
:1000800013969C938E931297948180E0258130E0A3
:10009000822B932B15969C938E931497968180E0D8
:1000A000278130E0822B932B17969C938E93169783
:1000B000908580E0218530E0822B932B19969C93CC
:1000C0008E931897928580E0238530E0822B932BC6
:1000D0001B969C938E931A97948580E0258530E03B
:1000E000822B932B1D969C938E931C97968580E074
:1000F000278530E0822B932B1F969C938E931E971F
:10010000908980E0218930E0822B932B51969C933B
:100110008E935097928980E0238930E0822B932B35
:1001200053969C938E935297948980E0258930E072
:10013000822B932B55969C938E93549708952F92D0
:100140003F925F926F927F928F929F92AF92BF92F7
:10015000CF92DF92EF92FF920F931F93DF93CF9393
:1001600000D000D0CDB7DEB78C011B01109270001B
:1001700010927100109272001092730068D28EEE8D
:100180009AD286EF98D270D28FEE95D2B0D2A1D209
:1001900078D2A0907400B0907500C0907600D09096
:1001A000770080E79EEFAFEFBFEFA80EB91ECA1E23
:1001B000DB1EC601B501A601950109D33B014C0127
:1001C0006CE095948794779467946A95D1F7D801F9
:1001D0005C90B0EC5B2260917C0070917D00882780
:1001E00077FD8095982FF3D27B018C015DE015950A
:1001F0000795F794E7945A95D1F782E090E0A0E054
:10020000B0E0E80EF91E0A1F1B1F209184003091F8
:100210008500442737FD4095542FC401B301D7D240
:10022000BC01992777FD9095892FE60EF71E081FD0
:10023000191F32E015950795F794E7943A95D1F791
:1002400080E090E8A0E0B0E0E80EF91E0A1F1B1F56
:1002500020917E0030917F0040E050E0C801B7015E
:10026000B6D2DC01CB012FE0B695A795979587957F
:100270002A95D1F789839A83AB83BC8360917A00F6
:1002800070917B00882777FD8095982FA6019501B6
:100290009ED27B018C018BE015950795F794E7942E
:1002A0008A95D1F78091780090917900880F991FF5
:1002B000880F991FAA2797FDA095BA2FE80EF91E5F
:1002C0000A1F1B1F2091860030918700442737FDAD
:1002D0004095542FC401B3017AD2ABE09595879530
:1002E00077956795AA95D1F7E60EF71E081F191F97
:1002F000052C04C0EE0CFF1C001F111F0A94D2F73E
:1003000082E090E0A0E0B0E0E80EF91E0A1F1B1F9B
:10031000F2E015950795F794E794FA95D1F7609177
:1003200070007091710080917200909173006E194D
:100330007F09800B910B20E533EC40E050E004C0D6
:1003400055954795379527955A94D2F740D297FD02
:100350000EC0660F771F881F991F29813A814B8134
:100360005C8154D2C901DA013C014D010BC02981E5
:100370003A814B815C814AD239014A01660C771C73
:10038000881C991CDD2497FCDA94C92CB82CA72C66
:10039000C401B30123E433EE4FEF5FEF18D27C01C9
:1003A0001127F7FC1095012F8FEC9EE0A0E0B0E044
:1003B000680E791E8A1E9B1EE60CF71C081D191D6F
:1003C000C601B501A601950102D22EED3BE040E049
:1003D00050E0FDD1BC01992777FD9095892FE60E5D
:1003E000F71E081F191F84E015950795F794E794E9
:1003F0008A95D1F7C801B70124E630E040E050E02B
:1004000027D2D1012C93C801B70124E630E040E0A7
:1004100050E01ED2F10161830F900F900F900F906A
:10042000CF91DF911F910F91FF90EF90DF90CF90D0
:10043000BF90AF909F908F907F906F905F903F9014
:100440002F9008958F929F92AF92BF92CF92DF929A
:10045000EF92FF920F931F934B0110926C0010923A
:100460006D0010926E0010926F00F1D08EEE23D1CD
:1004700086EF21D1F9D08FEE1ED139D1F82E29D1B6
:10048000082FFFD07F2D60E010E0602B712B8827B4
:1004900077FD8095982F60936C0070936D0080932A
:1004A0006E0090936F00209182003091830040E0B5
:1004B00050E0621B730B840B950B209180003091F0
:1004C000810040E050E083D15B016C01EFE0D59406
:1004D000C794B794A794EA95D1F720918A00722F18
:1004E000770F770F770F60E0882777FD8095982F3B
:1004F00020918C0030918D00442737FD4095542F7A
:100500002A0D3B1D4C1D5D1DA3D179018A01EA0C0A
:10051000FB1C0C1D1D1DE0927400F09275000093F1
:1005200076001093770088E090E0A0E0B0E0E80E5D
:10053000F91E0A1F1B1F74E015950795F794E794A1
:100540007A95D1F7C801B7012AE030E040E050E0E9
:100550007FD1D4012C93C801B7012AE030E040E0FC
:1005600050E076D1F40161831F910F91FF90EF90DD
:10057000DF90CF90BF90AF909F908F9008951F9382
:10058000182F65D08EEE80D084EF95D0812F93D038
:1005900078D01F9108950F931F93DF93CF93CDB71A
:1005A000DEB766970FB6F894DEBF0FBECDBFFE0173
:1005B0003196CE0147961192E817F907E1F747D037
:1005C0008EEE62D08AEA77D04FD08E010F5F1F4F38
:1005D000C80166E19AD055D088E790E0B8013FDDC8
:1005E00066960FB6F894DEBF0FBECDBFCF91DF91F8
:1005F0001F910F910895CFDF08959C0140E050E0D6
:1006000060E47CE980E090E023D12051304040401C
:100610005040CA01B90122E030E040E050E018D17A
:1006200090E005C09F5F36952795369527952F3F1B
:10063000310509F0B8F781B18370982B91B920B9D1
:10064000089584E486BF88EE93E0D7DF089584EAB6
:1006500086BF06B607FEFDCF81B1887F883019F0CE
:1006600081E080938E00089584EA86BF06B607FE77
:10067000FDCF81B1887F803119F082E080938E00B8
:10068000089584E986BF089580FD02C028E101C075
:1006900020E483B984E886BF06B607FEFDCF81B1AA
:1006A00090E0887F907030E08217930719F084E023
:1006B00080938E00089583B984E886BF06B607FE4E
:1006C000FDCF81B1887F883219F085E080938E005C
:1006D000089584E886BF06B607FEFDCF81B1887F06
:1006E000803519F085E080938E0083B1089584EC05
:1006F00086BF06B607FEFDCF81B1887F803519F031
:1007000085E080938E0083B10895AF92BF92CF921F
:10071000DF92FF920F931F93CF93DF938C01FF24FF
:10072000C62EDD2456010894A108B10805C0DFDFFC
:10073000C00FD11F8883F394CF2DD0E0CA15DB05FD
:10074000B4F3C7DF0C0D1D1D01501040F80180836C
:10075000DF91CF911F910F91FF90DF90CF90BF90CD
:10076000AF90089580938E0008955D9BFECF8CB965
:10077000089501C08CB15F99FDCF089590BD89B9EE
:1007800088E18AB98EE880BD08955D9BFECF5098C0
:1007900090FD509A8CB908955F9BFECF8CB108955F
:1007A00020E030E009C0FC01E20FF31FE0815D9B17
:1007B000FECFECB92F5F3F4F26173707A0F3089500
:1007C00082E087BB88BB89E190E0D8DFFFCF629FE2
:1007D000D001739FF001829FE00DF11D649FE00D39
:1007E000F11D929FF00D839FF00D749FF00D659F9A
:1007F000F00D9927729FB00DE11DF91F639FB00D99
:10080000E11DF91FBD01CF0111240895A1E21A2EA7
:10081000AA1BBB1BFD010DC0AA1FBB1FEE1FFF1FA4
:10082000A217B307E407F50720F0A21BB30BE40BF4
:10083000F50B661F771F881F991F1A9469F760953B
:100840007095809590959B01AC01BD01CF010895F5
:1008500097FB092E05260ED057FD04D0D7DF0AD00E
:10086000001C38F450954095309521953F4F4F4FDF
:100870005F4F0895F6F790958095709561957F4F3D
:0A0880008F4F9F4F0895F894FFCFAB
:06088A004F4B4E4F4F4B97
:00000001FF
