:1000000012C024C023C022C021C020C01FC01EC0F7
:100010001DC01CC01BC01AC019C018C017C016C014
:1000200015C014C013C011241FBECFE5D4E0DEBF3D
:10003000CDBF10E0A0E6B0E0E4EFF1E002C0059033
:100040000D92A636B107D9F78BD0D2C0D9CF08957B
:1000500031D08EEE39D008952DD08EEE35D0089562
:100060009C0140E050E060E47CE980E090E083D0D7
:100070002051304040405040CA01B90122E030E0F8
:1000800040E050E078D090E005C09F5F369527951E
:10009000369527952F3F310509F0B8F781B1837068
:1000A000982B91B920B9089584E486BF88EE93E037
:1000B000D7DF089584EA86BF06B607FEFDCF81B17B
:1000C000089584E986BF089583B984E886BF06B69B
:1000D00007FEFDCF81B1089583B984E886BF06B6D7
:1000E00007FEFDCF81B1089584E886BF06B607FEFE
:1000F000FDCF81B183B1089584EC86BF06B607FEBB
:10010000FDCF81B183B1089508955D9BFECF8CB979
:10011000089501C08CB15F99FDCF089590BD89B954
:1001200088E18AB98EE880BD08955D9BFECF509826
:1001300090FD509A8CB908955F9BFECF8CB10895C5
:1001400020E030E009C0FC01E20FF31FE0815D9B7D
:10015000FECFECB92F5F3F4F26173707A0F3089566
:1001600082E087BB88BB89E190E0D8DF9DDFA2DF1A
:100170008EEEAADFFFCF97FB092E05260ED057FD86
:1001800004D014D00AD0001C38F450954095309516
:1001900021953F4F4F4F5F4F0895F6F7909580950B
:1001A000709561957F4F8F4F9F4F0895A1E21A2E52
:1001B000AA1BBB1BFD010DC0AA1FBB1FEE1FFF1F0B
:1001C000A217B307E407F50720F0A21BB30BE40B5B
:1001D000F50B661F771F881F991F1A9469F76095A2
:1001E0007095809590959B01AC01BD01CF0108955C
:0401F000F894FFCFB1
:0601F4004F4B4E4F4F4B34
:00000001FF
