:1000000012C02CC02BC02AC029C028C027C026C0BF
:1000100025C024C023C093C056C02DC01FC01EC021
:100020001DC01CC01BC011241FBECFE5D4E0DEBF25
:10003000CDBF10E0A0E6B0E0E8EDFCE002C0059026
:100040000D92A83BB107D9F711E0A8EBB0E001C0D1
:100050001D92A831B107E1F754D53CC6D1CF90BD70
:1000600089B988E18AB986E880BD8A9A929A8AB16C
:10007000886D8AB908951F920F920FB60F921124BE
:1000800092980F900FBE0F901F901895282F909167
:10009000B9009F5F9F708091BA009817E1F3E92F34
:1000A000F0E0E554FF4F20839093B900559A0895EE
:1000B000CF93DF93EC0101C0E9DF89918823E1F759
:1000C000DF91CF9108951F920F920FB60F921124D6
:1000D0008F939F93EF93FF939091B9008091BA0013
:1000E000981771F08091BA008F5F8F708093BA007B
:1000F000E091BA00F0E0E554FF4F80818CB901C077
:100100005598FF91EF919F918F910F900FBE0F9097
:100110001F9018959091CB008091CC00981711F406
:1001200080E008958091CC008F5F8F718093CC0028
:10013000E091CC00F0E0E353FF4F808108951F92DF
:100140000F920FB60F9211248F939F93EF93FF930B
:100150009CB1E091CB00EF5FEF718091CC00E8178C
:1001600031F0E093CB00F0E0E353FF4F9083FF9139
:10017000EF919F918F910F900FBE0F901F90189548
:100180000F931F93DF93CF93CDB7DEB761970FB671
:10019000F894DEBF0FBECDBFAB018E010F5F1F4FC6
:1001A000B80169D5C80184DF61960FB6F894DEBF47
:1001B0000FBECDBFCF91DF911F910F910895BC016C
:1001C00080EA9FE007D5603130F0862F90E04097BD
:1001D00095958795682F60B9089584EA86BF06B61D
:1001E00007FEFDCF089584E986BF06B604FEFDCF65
:1001F000089583B984E886BF06B607FEFDCF08954B
:100200008295880F880F807C846886BF06B607FEBB
:10021000FDCF83B10895982FF90184EA86BF06B611
:1002200007FEFDCF93B984E886BF06B607FEFDCF73
:1002300063B984E886BF06B607FEFDCF09C080819A
:1002400083B996BF06B607FEFDCF3196415001C077
:1002500094E84423A1F784E986BF06B604FEFDCFE7
:100260000895982FF90184EA86BF06B607FEFDCFF0
:1002700093B984E886BF06B607FEFDCF63B984E86C
:1002800086BF06B607FEFDCF84EA86BF06B607FE28
:10029000FDCF9F5F93B984E886BF06B607FEFDCF0A
:1002A00012C0415080E090E011F081E090E036E033
:1002B000880F991F3A95E1F7846886BF06B607FE56
:1002C000FDCF83B18193442361F784E986BF06B6ED
:1002D00004FEFDCF0895089508951F93DF93CF93F3
:1002E00000D00F92CDB7DEB71091ED0012951695A4
:1002F000169513708EEE66EF43E09E012F5F3F4F21
:100300004FD3298130E040E050E0A9013327222774
:100310008A8190E0A0E0B0E0BA2FA92F982F88271B
:10032000282B392B4A2B5B2B8B8190E0A0E0B0E08F
:10033000282B392B4A2B5B2B88E090E0811B9109FD
:1003400004C055954795379527958A95D2F7B901F9
:10035000CA010F900F900F90CF91DF911F910895D8
:100360002F923F924F925F926F927F928F929F92C5
:10037000AF92BF92CF92DF92EF92FF920F931F93B3
:10038000DF93CF9300D000D00F92CDB7DEB780912E
:10039000ED0082958695869583708D839EDF1B0187
:1003A0002C0160930C0170930D0180930E019093CA
:1003B0000F01A0900401B0900501C0900601D090FB
:1003C000070180E690EFAFEFBFEFA80EB91ECA1E7F
:1003D000DB1EC601B501A6019501DDD33B014C0131
:1003E000ACE09594879477946794AA95D1F760913F
:1003F000F2007091F300882777FD8095982FCBD37A
:100400007B018C01FDE015950795F794E794FA952B
:10041000D1F782E090E0A0E0B0E0E80EF91E0A1FFC
:100420001B1F2091FA003091FB00442737FD4095B7
:10043000542FC401B301AFD3BC01992777FD909528
:10044000892FE60EF71E081F191F62E01595079504
:10045000F794E7946A95D1F780E090E8A0E0B0E0E7
:10046000E80EF91E0A1F1B1F2091F4003091F500C1
:1004700040E050E0C801B7018ED3DC01CB015FE062
:10048000B695A795979587955A95D1F789839A83BD
:10049000AB83BC836091F0007091F100882777FDF9
:1004A0008095982FA601950176D37B018C014BE0B6
:1004B00015950795F794E7944A95D1F78091EE004A
:1004C0009091EF00AA2797FDA095BA2F32E0880FF0
:1004D000991FAA1FBB1F3A95D1F7E80EF91E0A1FF4
:1004E0001B1F2091FC003091FD00442737FD4095F3
:1004F000542FC401B3014FD32BE095958795779581
:1005000067952A95D1F7E60EF71E081F191F0D8073
:1005100004C0EE0CFF1C001F111F0A94D2F782E0EA
:1005200090E0A0E0B0E0E80EF91E0A1F1B1F82E079
:1005300015950795F794E7948A95D1F72E183F08FB
:10054000400A510A20E533EC40E050E00D8004C041
:1005500056954795379527950A94D2F7C201B10170
:100560001AD397FD0EC0660F771F881F991F298128
:100570003A814B815C8142D3C901DA013C014D01D2
:100580000BC029813A814B815C8138D339014A0102
:10059000660C771C881C991CDD2497FCDA94C92C06
:1005A000B82CA72CC401B30123E433EE4FEF5FEF67
:1005B000F2D27C011127F7FC1095012F8FEC9EE001
:1005C000A0E0B0E0E80EF91E0A1F1B1FC601B5012E
:1005D000A6019501E0D22EED3BE040E050E0DBD2F9
:1005E000BC01992777FD9095892FE60EF71E081F0D
:1005F000191FE4E015950795F794E794EA95D1F76C
:10060000E60CF71C081D191DB701C8010F900F90CB
:100610000F900F900F90CF91DF911F910F91FF904E
:10062000EF90DF90CF90BF90AF909F908F907F9092
:100630006F905F904F903F902F900895DF93CF93EE
:1006400000D0CDB7DEB78EEE66EF42E09E012F5FA1
:100650003F4FA6D1898190E0A0E0B0E0BA2FA92F4A
:10066000982F88272A8130E040E050E0822B932B9E
:10067000A42BB52B8093080190930901A0930A0144
:10068000B0930B0160E070E080E090E00F900F907D
:10069000CF91DF910895EF92FF920F931F93CEDFDA
:1006A000609308017093090180930A0190930B01F4
:1006B0002091F8003091F90040E050E0621B730B8C
:1006C000840B950B2091F6003091F70040E050E04C
:1006D00062D27B018C01FFE015950795F794E794B2
:1006E000FA95D1F76091000170910101882777FD9B
:1006F0008095982FEBE0660F771F881F991FEA956A
:10070000D1F72091020130910301442737FD409534
:10071000542F2E0D3F1D401F511F92D22E0D3F1DF5
:10072000401F511F2093040130930501409306019F
:1007300050930701285F3F4F4F4F5F4F64E055953F
:100740004795379527956A95D1F7B901CA011F9149
:100750000F91FF90EF900895DF93CF93CDB7DEB761
:1007600066970FB6F894DEBF0FBECDBF8093ED0045
:100770008EEE6AEA46E19E012F5F3F4F11D19981CB
:1007800080E02A8130E0822B932B9093EF008093BE
:10079000EE009B8180E02C8130E0822B932B9093A4
:1007A000F1008093F0009D8180E02E8130E0822B6B
:1007B000932B9093F3008093F2009F8180E0288533
:1007C00030E0822B932B9093F5008093F400998571
:1007D00080E02A8530E0822B932B9093F700809362
:1007E000F6009B8580E02C8530E0822B932B909344
:1007F000F9008093F8009D8580E02E8530E0822B03
:10080000932B9093FB008093FA009F8580E02889CA
:1008100030E0822B932B9093FD008093FC0099890C
:1008200080E02A8930E0822B932B9093FF00809305
:10083000FE009B8980E02C8930E0822B932B9093E3
:100840000101809300019D8980E02E8930E0822B98
:10085000932B909303018093020166960FB6F89450
:10086000DEBF0FBECDBFCF91DF91089538D08EEEA1
:1008700053D084EF68D08091ED0065D04AD00895C0
:100880002ED08EEE49D084EF5ED08EE25CD041D087
:10089000089524E426BF9C0140E050E060E47CE938
:1008A00080E090E0CDD12051304040405040CA011E
:1008B000B90122E030E040E050E0C2D190E005C054
:1008C0009F5F36952795369527952F3F310509F07F
:1008D000B8F781B18370982B91B920B9089584EA53
:1008E00086BF06B607FEFDCF81B1887F883019F03C
:1008F00081E08093B800089584EA86BF06B607FEBB
:10090000FDCF81B1887F803119F082E08093B800FB
:10091000089584E986BF089580FD02C028E101C0E2
:1009200020E483B984E886BF06B607FEFDCF81B117
:1009300090E0887F907030E08217930719F084E090
:100940008093B800089583B984E886BF06B607FE91
:10095000FDCF81B1887F883219F085E08093B8009F
:10096000089584E886BF06B607FEFDCF81B1887F73
:10097000803519F085E08093B80083B1089584EC48
:1009800086BF06B607FEFDCF81B1887F803519F09E
:1009900085E08093B80083B108958093B8000895EE
:1009A000FF920F931F93CF93DF93082F162FF42EF0
:1009B000E90195DF802FB0DF812FC5DF9DDF802F1C
:1009C0008F5FAADF06C0FA9411F0D9DF01C0C9DF3A
:1009D0008993FF20C1F7DF91CF911F910F91FF9075
:1009E0000895FF920F931F93CF93DF93182F062F35
:1009F000F42EE90174DF812F8FDF802FA4DF03C085
:100A00008991A1DFFA94FF20D9F784E986BFDF91AD
:100A1000CF911F910F91FF90089584E690E048DBFD
:100A20006091100170911101809112019091130158
:100A30002AE030E040E050E003D1DA01C9016AE089
:100A400070E09EDB81E790E033DB609110017091F4
:100A5000110180911201909113012AE030E040E0F1
:100A600050E0EED0DC01CB016AE070E089DB83E787
:100A700090E01EDB86E790E01BDB60911401709133
:100A80001501809116019091170124E630E040E0B5
:100A900050E0D6D0DA01C9016AE070E071DB81E78D
:100AA00090E006DB609114017091150180911601B0
:100AB0009091170124E630E040E050E0C1D06A3068
:100AC0007105810591051CF482E890E0F1DA6091EE
:100AD000140170911501809116019091170124E67F
:100AE00030E040E050E0ACD0DC01CB016AE070E0E7
:100AF00047DB84E890E0DCDA089588EE93E0C9DE15
:100B000008950F931F93CF93DF9382E087BB88BB39
:100B100088EE93E0BEDE1092100110921101109247
:100B200012011092130110921401109215011092EB
:100B300016011092170184E70FDE89E190E08FDA49
:100B4000789487E890E0B4DAC0E5D3EC04E610E0EE
:100B500097DECE010197F1F79EDD6093100170934F
:100B60001101809312019093130180DECE01019751
:100B7000F1F7F6DB60931401709315018093160171
:100B8000909317014ADF80E593ECF8013197F1F774
:100B90000197D9F7DDCF629FD001739FF001829F4B
:100BA000E00DF11D649FE00DF11D929FF00D839FFC
:100BB000F00D749FF00D659FF00D9927729FB00D99
:100BC000E11DF91F639FB00DE11DF91FBD01CF01AC
:100BD00011240895AA1BBB1B51E107C0AA1FBB1F0C
:100BE000A617B70710F0A61BB70B881F991F5A95B9
:100BF000A9F780959095BC01CD010895A1E21A2E28
:100C0000AA1BBB1BFD010DC0AA1FBB1FEE1FFF1FB0
:100C1000A217B307E407F50720F0A21BB30BE40B00
:100C2000F50B661F771F881F991F1A9469F7609547
:100C30007095809590959B01AC01BD01CF01089501
:100C400097FB092E05260ED057FD04D0D7DF0AD01A
:100C5000001C38F450954095309521953F4F4F4FEB
:100C60005F4F0895F6F790958095709561957F4F49
:100C70008F4F9F4F0895FB019F01E8944230BCF0D5
:100C80004532ACF44A3029F497FB1EF490958195D7
:100C90009F4F642F77279EDF805D8A330CF0895D3C
:100CA0008193CB010097A9F716F45DE2519310826E
:100CB000C90100C0DC01FC01672F71917723E1F7C6
:100CC000329704C07C916D9370836291AE17BF0719
:080CD000C8F30895F894FFCF6A
:100CD8004F4B4E4F54656D70657261747572613A11
:100CE800002E00200900204369736E69656E6965EE
:100CF8003A0030000D0A002A2A2A2A2A2A2A2A2AF1
:100D08002A2A2A2A2A20447A69656E20446F627248
:100D180079202A2A2A2A2A2A2A2A2A2A2A2A2A2AE6
:080D28002A2A2A2A0D0A000004
:00000001FF
