:1000000012C02CC02BC02AC029C028C027C026C0BF
:1000100025C024C023C022C021C020C01FC01EC0D4
:100020001DC01CC01BC011241FBECFE5D4E0DEBF25
:10003000CDBF10E0A0E6B0E0ECE1F0E102C0059039
:100040000D92AC36B107D9F710E0ACE6B0E001C0D4
:100050001D92AB39B107E1F752D4DEC7D1CFDC0135
:10006000FB01218130E0908180E0282B392B119613
:100070003C932E93928180E0238130E0822B932B5E
:1000800013969C938E931297948180E0258130E0A3
:10009000822B932B15969C938E931497968180E0D8
:1000A000278130E0822B932B17969C938E93169783
:1000B000908580E0218530E0822B932B19969C93CC
:1000C0008E931897928580E0238530E0822B932BC6
:1000D0001B969C938E931A97948580E0258530E03B
:1000E000822B932B1D969C938E931C97968580E074
:1000F000278530E0822B932B1F969C938E931E971F
:10010000908980E0218930E0822B932B51969C933B
:100110008E935097928980E0238930E0822B932B35
:1001200053969C938E935297948980E0258930E072
:10013000822B932B55969C938E93549708951F93DF
:10014000182F24D38EEE3FD3812F54D32CD38FEE90
:100150003AD380E090E01F910895EF92FF920F93C1
:100160001F93DF93CF9300D0CDB7DEB78C01FC0196
:1001700080819181A9D380916000909161009A83E0
:1001800089837E010894E11CF11CC70161E070E0E5
:10019000A6D3F8018281938197D3C70161E070E013
:1001A0009ED3F801848195818FD3C70161E070E00F
:1001B00096D3F8018681978187D3C70161E070E00B
:1001C0008ED3F801808591857FD3C70161E070E00F
:1001D00086D30F900F90CF91DF911F910F91FF90D9
:1001E000EF9008952F923F924F925F926F927F927D
:1001F0008F929F92AF92BF92CF92DF92EF92FF9237
:100200000F931F93DF93CF93CDB7DEB72A970FB627
:10021000F894DEBF0FBECDBF9A87898778876F833A
:10022000DC0156961C91107CFC01138E148E158EE9
:10023000168EACD28EEEC7D286EFDCD2B4D28FEE61
:10024000C2D2F4D2682EF2D2E82EE2D2A82EB8D2D0
:10025000212F30E03E832D83772488249924430185
:1002600077246624FF2400E010E0102F0F2DFE2CD1
:10027000EE246E287F28802A912ABB24CC24DD24FA
:100280006A287B288C289D2888E090E0821B930BAD
:1002900004C095948794779467948A95D2F7A9853A
:1002A000BA855B966D927D928D929C925E975F96D9
:1002B000AD90BD90CD90DC90929780E79EEFAFEF30
:1002C000BFEFA80EB91ECA1EDB1EC601B501A601EE
:1002D000950180D31B012C01ACE0559447943794D1
:1002E0002794AA95D1F7A985BA8514966D917C912A
:1002F0001597882777FD8095982F6CD37B018C010B
:10030000FDE015950795F794E794FA95D1F782E00B
:1003100090E0A0E0B0E0E80EF91E0A1F1B1FA985BF
:10032000BA851C962D913C911D97442737FD409529
:10033000542FC201B1014ED3BC01992777FD90958E
:10034000892FE60EF71E081F191F52E01595079515
:10035000F794E7945A95D1F780E090E8A0E0B0E0F8
:10036000E80EF91E0A1F1B1FA985BA8516962D9146
:100370003C91179740E050E0C801B7012BD3DC0156
:10038000CB014FE0B695A795979587954A95D1F7FC
:1003900089839A83AB83BC83A985BA8512966D91B4
:1003A0007C911397882777FD8095982FA60195015A
:1003B00011D37B018C013BE015950795F794E794E9
:1003C0003A95D1F7E985FA8580819181AA2797FD31
:1003D000A095BA2F22E0880F991FAA1FBB1F2A954C
:1003E000D1F7E80EF91E0A1F1B1F26853785442703
:1003F00037FD4095542FC201B101ECD2ABE0959589
:10040000879577956795AA95D1F7E60EF71E081F91
:10041000191F0D8004C0EE0CFF1C001F111F0A9451
:10042000D2F782E090E0A0E0B0E0E80EF91E0A1FEB
:100430001B1FF2E015950795F794E794FA95D1F70D
:100440006E187F08800A910A20E533EC40E050E006
:100450000D8004C055954795379527950A94D2F796
:10046000C401B301B7D297FD0EC0660F771F881F76
:10047000991F29813A814B815C81CBD2C901DA0174
:100480003C014D010BC029813A814B815C81C1D275
:1004900039014A01660C771C881C991CDD2497FCE5
:1004A000DA94C92CB82CA72CC401B30123E433EE91
:1004B0004FEF5FEF8FD27C011127F7FC1095012FD2
:1004C0008FEC9EE0A0E0B0E0680E791E8A1E9B1EB5
:1004D000E60CF71C081D191DC601B501A601950102
:1004E00079D22EED3BE040E050E074D2BC01992778
:1004F00077FD9095892FE60EF71E081F191F84E0DF
:1005000015950795F794E7948A95D1F7AF81B8854B
:10051000ED92FC922A960FB6F894DEBF0FBECDBFC7
:10052000CF91DF911F910F91FF90EF90DF90CF90CF
:10053000BF90AF909F908F907F906F905F904F9003
:100540003F902F9008956F927F928F929F92AF92DB
:10055000BF92CF92DF92EF92FF920F931F934C01C5
:100560003B01DC0157961D921D921D921C925A97D9
:100570000DD18EEE28D186EF3DD115D18FEE23D14E
:1005800055D1E82E45D1A82E1BD1FF2400E010E064
:10059000102F0F2DFE2CEE24BB24CC24DD24EA28C2
:1005A000FB280C291D29F401E78AF08E018F128F98
:1005B00082859385A0E0B0E0E81AF90A0A0B1B0BCC
:1005C0002085318540E050E0C801B70103D25B01CE
:1005D0006C013FE0D594C794B794A7943A95D1F7AE
:1005E000D40152966D917C915397882777FD809521
:1005F000982F2BE0660F771F881F991F2A95D1F738
:1006000054962D913C915597442737FD4095542F92
:100610002A0D3B1D4C1D5D1D1ED279018A01EA0C7D
:10062000FB1C0C1D1D1DF401E78EF0A201A312A3FB
:1006300088E090E0A0E0B0E0E80EF91E0A1F1B1F62
:1006400084E015950795F794E7948A95D1F7C8014A
:10065000B7012AE030E040E050E0FDD1D3012C9317
:10066000C801B7012AE030E040E050E0F4D1F301E6
:1006700061831F910F91FF90EF90DF90CF90BF901B
:10068000AF909F908F907F906F9008950F931F93DE
:100690008C017CD08EEE97D084EFACD0F8018689A7
:1006A000A9D08ED01F910F91089570D08EEE8BD06F
:1006B00084EFA0D08EE29ED083D00895EF92FF9277
:1006C0000F931F93DF93CF93CDB7DEB766970FB627
:1006D000F894DEBF0FBECDBF7C01FE013196CE0186
:1006E00047961192E817F907E1F750D08EEE6BD0DC
:1006F0008AEA80D058D08FEE66D08E010F5F1F4FF0
:10070000C80166E1A1D0C701B801A9DC66960FB6A1
:10071000F894DEBF0FBECDBFCF91DF911F910F9137
:10072000FF90EF9008950F931F938C0129D0C8017B
:10073000C5DF1F910F9108959C0140E050E060E4F7
:100740007CE980E090E087D120513040404050402B
:10075000CA01B90122E030E040E050E07CD190E0F5
:1007600005C09F5F36952795369527952F3F310514
:1007700009F0B8F781B18370982B91B920B9089529
:1007800084E486BF88EE93E0D7DF089584EA86BFCD
:1007900006B607FEFDCF81B1887F883019F081E071
:1007A00080936C00089584EA86BF06B607FEFDCFED
:1007B00081B1887F803119F082E080936C000895C8
:1007C00084E986BF089580FD02C028E101C020E4CD
:1007D00083B984E886BF06B607FEFDCF81B190E0FD
:1007E000887F907030E08217930719F084E080933F
:1007F0006C00089583B984E886BF06B607FEFDCF76
:1008000081B1887F883219F085E080936C0008956B
:1008100084E886BF06B607FEFDCF81B1887F8035AC
:1008200019F085E080936C0083B1089584EC86BF55
:1008300006B607FEFDCF81B1887F803519F085E0CF
:1008400080936C0083B10895AF92BF92CF92DF92F4
:10085000FF920F931F93CF93DF938C01FF24C62E3B
:10086000DD2456010894A108B10805C0DFDFC00FE0
:10087000D11F8883F394CF2DD0E0CA15DB05B4F3E4
:10088000C7DF0C0D1D1D01501040F8018083DF9162
:10089000CF911F910F91FF90DF90CF90BF90AF90BD
:1008A000089580936C0008955D9BFECF8CB90895E8
:1008B00001C08CB15F99FDCF089590BD89B988E1E1
:1008C0008AB98EE880BD08955D9BFECF509890FD5B
:1008D000509A8CB908955F9BFECF8CB1089520E0AB
:1008E00030E009C0FC01E20FF31FE0815D9BFECF09
:1008F000ECB92F5F3F4F26173707A0F30895AF924B
:10090000BF92CF92DF92EF92FF920F931F93DF93EC
:10091000CF9300D0CDB7DEB782E087BB88BB84E73A
:1009200080938E0019821A8288E790E0FCDE89E1CC
:1009300090E0C3DF1092700010926F0088E790E0A3
:10094000B4DE80E29EE40197F1F788E790E0BE0113
:100950006F5F7F4FF8DD20E2A22E2EE4B22E93E7E8
:10096000C92E90E0D92E86E6E82E80E0F82E04E627
:1009700010E088E790E08ADEC5010197F1F788E78B
:1009800090E06FE670E02EDC00D000D000D0EDB734
:10099000FEB73196ADB7BEB71296DC92CE921197E4
:1009A000F382E28280916F0090917000958384833E
:1009B0006DD080E593EC2DB73EB72A5F3F4F0FB661
:1009C000F8943EBF0FBE2DBFF8013197F1F70197A4
:1009D000D9F7CFCF629FD001739FF001829FE00DC6
:1009E000F11D649FE00DF11D929FF00D839FF00DAE
:1009F000749FF00D659FF00D9927729FB00DE11D5A
:100A0000F91F639FB00DE11DF91FBD01CF01112436
:100A10000895A1E21A2EAA1BBB1BFD010DC0AA1F3F
:100A2000BB1FEE1FFF1FA217B307E407F50720F057
:100A3000A21BB30BE40BF50B661F771F881F991FD2
:100A40001A9469F760957095809590959B01AC011B
:100A5000BD01CF01089597FB092E05260ED057FD45
:100A600004D0D7DF0AD0001C38F45095409530955B
:100A700021953F4F4F4F5F4F0895F6F79095809522
:100A8000709561957F4F8F4F9F4F0895AEE0B0E016
:100A9000EBE4F5E098C20D891E8986E08C831A8309
:100AA00009838FEF9FE79E838D839E01275E3F4FD3
:100AB000CE0101966F89788DA90109D02F813885E3
:100AC000020F131FF80110822E96E4E098C2ABE0EB
:100AD000B0E0ECE6F5E069C23C012B015A01FC01F3
:100AE00017821682838181FD03C06FEF7FEFB9C14A
:100AF0009AE0892E1E010894211C311CF3012381E8
:100B0000F20123FD859123FF81912F01882309F4B0
:100B1000A5C1853239F423FD859123FF81912F01F1
:100B2000853221F490E0B301B6D1E8CF982FFF24AD
:100B3000EE249924FFE1FF15D0F09B3269F09C323E
:100B400028F4903259F0933291F40EC09D3249F05E
:100B5000903369F441E024C052E0F52A84E0F82A99
:100B600028C098E0F92A25C0E0E1FE2A22C0F7FC5F
:100B700029C0892F80538A3070F4F6FE05C0989CF6
:100B8000902C1124980E15C0E89CE02C1124E80E3E
:100B9000F0E2FF2A0EC09E3229F4F6FC5FC140E469
:100BA000F42A07C09C3619F450E8F52A02C098369A
:100BB00049F4F20123FD959123FF91912F0199238F
:100BC00009F0B8CF892F8554833018F080528330D4
:100BD00038F444E050E0A40EB51E5FE359830FC023
:100BE000933631F0933779F0933509F052C01FC036
:100BF000F5018081898342E050E0A40EB51E6101B9
:100C000001E010E011C0F501C080D180F6FC03C006
:100C10006FEF7FEF02C0692D70E042E050E0A40E5C
:100C2000B51EC6012DD18C015FE7F52213C0F50179
:100C3000C080D180F6FC03C06FEF7FEF02C0692D4A
:100C400070E042E050E0A40EB51EC6010ED18C014A
:100C500050E8F52AF3FE06C018C080E290E0B30128
:100C60001AD1EA948E2D90E008171907B0F30DC041
:100C7000F601F7FC8591F7FE81916F0190E0B301D9
:100C80000AD1E110EA94015010400115110581F7D5
:100C9000E2C0943611F0993661F5F7FE08C0F5010F
:100CA000208131814281538184E090E00AC0F501C6
:100CB000808191819C01442737FD4095542F82E02B
:100CC00090E0A80EB91E9FE6F92257FF09C0509583
:100CD0004095309521953F4F4F4F5F4FE0E8FE2AFA
:100CE000CA01B901A1012AE030E001D1D82ED21801
:100CF0003FC0953729F41F2D1F7E2AE030E01DC02C
:100D00001F2D197F9F3661F0903720F4983509F038
:100D1000A5C00FC0903739F0983709F09FC004C0C4
:100D200028E030E00AC0106114FD146020E130E0DA
:100D300004C014FD166020E132E017FF08C0F50181
:100D4000608171818281938144E050E008C0F501A7
:100D500080819181BC0180E090E042E050E0A40EEF
:100D6000B51EA101C4D0D82ED2188FE7F82EF122DB
:100D7000F6FE0BC05EEFF522D91438F4F4FE07C07E
:100D8000F2FC05C08FEEF82202C01D2D01C0192D06
:100D9000F4FE0DC0FE01ED0DF11D8081803319F4CC
:100DA00099EEF92208C01F5FF2FE05C003C08F2D27
:100DB000867809F01F5F0F2DF3FC13C0F0FE0EC004
:100DC0001E1510F09D2C0AC09D2C9E0C911A1E2DF4
:100DD00005C080E290E0B3015ED01F5F1E15C8F32E
:100DE00004C01E1510F4E11A01C0EE2404FF0EC069
:100DF00080E390E0B3014FD002FF1BC001FD03C0B0
:100E000088E790E00EC088E590E00BC0802F8678E0
:100E100081F001FF02C08BE201C080E2F7FC8DE2AD
:100E200090E0B30138D005C080E390E0B30133D047
:100E30009A94D914C8F3DA94F101ED0DF11D808173
:100E400090E0B30128D0DD20B1F705C080E290E04A
:100E5000B30121D0EA94EE20C9F750CEF3016681A8
:100E60007781CB012B96E2E1BCC0FC01059061507B
:100E700070400110D8F7809590958E0F9F1F0895B0
:100E8000FC016150704001900110D8F78095909559
:100E90008E0F9F1F08950F931F93CF93DF938C01A5
:100EA000EB018B8181FF1BC082FF0DC02E813F8132
:100EB0008C819D812817390764F4E881F9810193B9
:100EC000F983E88306C0E885F985802F0995892B89
:100ED00031F48E819F8101969F838E8302C00FEF34
:100EE0001FEFC801DF91CF911F910F910895FA0173
:100EF000AA27283051F1203181F1E8946F936E7F59
:100F00006E5F7F4F8F4F9F4FAF4FB1E03ED0B4E049
:100F10003CD0670F781F891F9A1FA11D680F791F8A
:100F20008A1F911DA11D6A0F711D811D911DA11D9B
:100F300020D009F468943F912AE0269F11243019AB
:100F4000305D3193DEF6CF010895462F4770405D46
:100F50004193B3E00FD0C9F7F6CF462F4F70405DF5
:100F60004A3318F0495D31FD4052419302D0A9F750
:100F7000EACFB4E0A6959795879577956795BA954A
:100F8000C9F700976105710508959B01AC010A2E10
:100F900006945795479537952795BA95C9F7620FE7
:100FA000731F841F951FA01D08952F923F924F928B
:100FB0005F926F927F928F929F92AF92BF92CF92E9
:100FC000DF92EF92FF920F931F93CF93DF93CDB7F2
:100FD000DEB7CA1BDB0B0FB6F894DEBF0FBECDBF6A
:100FE00009942A88398848885F846E847D848C843B
:100FF0009B84AA84B984C884DF80EE80FD800C8144
:101000001B81AA81B981CE0FD11D0FB6F894DEBF26
:0C1010000FBECDBFED010895F894FFCF96
:0C101C0020004F4B4E4F2575004F4B003D
:00000001FF
