:1000000012C02CC02BC02AC029C028C027C026C0BF
:1000100025C024C023C022C021C020C01FC01EC0D4
:100020001DC01CC01BC011241FBECFE5D4E0DEBF25
:10003000CDBF10E0A0E6B0E0E4E1F3E002C005903F
:100040000D92A636B107D9F710E0A6E6B0E001C0E0
:100050001D92A238B107E1F717D15AC1D1CF8F92C3
:100060009F92AF92BF92CF92DF92EF92FF920F9347
:100070001F934C01ACD08EEEC3D086EFC1D0AED072
:100080008FEEBED0CDD0F82EC3D0082FAED09F2D8E
:1000900080E010E0802B912B20917600309177004A
:1000A000821B930B2091740030917500829F700128
:1000B000839FF00C929FF00C1124EE24FF0CEE1C99
:1000C000FF2400E010E020917E00722F770F770F61
:1000D000770F60E0882777FD8095982F209180002A
:1000E00030918100442737FD4095542F2E0D3F1D40
:1000F000401F511FD0D059016A0188E090E0A0E074
:10010000B0E0E80EF91E0A1F1B1FAE0CBF1CC01E7C
:10011000D11E84E0D594C794B794A7948A95D1F75B
:10012000C601B5012AE030E040E050E0B4D0D4018F
:100130002C93C601B5012AE030E040E050E0ABD09E
:10014000F40161831F910F91FF90EF90DF90CF90AA
:10015000BF90AF909F908F90089539D08EEE48D089
:1001600008951F93182F33D08EEE42D084EF48D0DD
:10017000812F46D03AD01F9108959C0140E050E075
:1001800060E47CE980E090E086D02051304040403F
:100190005040CA01B90122E030E040E050E07BD09D
:1001A00090E005C09F5F36952795369527952F3FA0
:1001B000310509F0B8F781B18370982B91B920B956
:1001C000089584E486BF88EE93E0D7DF089584EA3B
:1001D00086BF06B607FEFDCF81B1089584EA86BFCB
:1001E00006B607FEFDCF81B1089584E986BF089564
:1001F00083B984E886BF06B607FEFDCF81B10895B6
:1002000083B984E886BF06B607FEFDCF81B10895A5
:1002100084E886BF06B607FEFDCF81B183B108959D
:1002200084EC86BF06B607FEFDCF81B183B1089589
:1002300008955D9BFECF8CB9089501C08CB15F9984
:10024000FDCF089590BD89B988E18AB98EE880BD57
:1002500008955D9BFECF509890FD509A8CB90895FB
:100260005F9BFECF8CB1089520E030E009C0FC0117
:10027000E20FF31FE0815D9BFECFECB92F5F3F4F94
:1002800026173707A0F3089582E087BB88BB89E172
:1002900090E0D8DFFFCF97FB092E05260ED057FD43
:1002A00004D014D00AD0001C38F4509540953095F5
:1002B00021953F4F4F4F5F4F0895F6F790958095EA
:1002C000709561957F4F8F4F9F4F0895A1E21A2E31
:1002D000AA1BBB1BFD010DC0AA1FBB1FEE1FFF1FEA
:1002E000A217B307E407F50720F0A21BB30BE40B3A
:1002F000F50B661F771F881F991F1A9469F7609581
:100300007095809590959B01AC01BD01CF0108953A
:04031000F894FFCF8F
:060314004F4B4E4F4F4B12
:00000001FF
