:100000000C945E010C947B010C947B010C947B019D
:100010000C947B010C947B010C947B010C947B0170
:100020000C947B010C947B010C947B010C947B0160
:100030000C947B010C947B010C947B010C947B0150
:100040000C947B010C947B010C947B010C947B0140
:100050000C947B010C947B010C947B010C947B0130
:100060000C947B010C947B01000108000604000144
:100070004500008200004000200D0A436F6E746549
:100080006E742D547970653A206170706C6963618B
:1000900074696F6E2F782D7777772D666F726D2D5F
:1000A00075726C656E636F6465640D0A0D0A0043BA
:1000B0006F6E74656E742D4C656E6774683A2000BF
:1000C0000D0A557365722D4167656E743A20746729
:1000D000722F312E310D0A4163636570743A202A04
:1000E0002F2A0D0A436F6E6E656374696F6E3A2036
:1000F000636C6F73650D0A000D0A0020485454505C
:100100002F312E310D0A486F73743A2000504F532F
:100110005420000D0A557365722D4167656E743A5F
:10012000207467722F312E300D0A4163636570743D
:100130003A20746578742F68746D6C0D0A436F6E85
:100140006E656374696F6E3A20636C6F73650D0A38
:100150000D0A0020485454502F312E310D0A486F9B
:1001600073743A20004745542000485454502F31AE
:100170002E302034303120556E617574686F72698D
:100180007A65640D0A436F6E74656E742D547970D0
:10019000653A20746578742F68746D6C0D0A0D0AC9
:1001A0003C68313E34303120556E617574686F7231
:1001B000697A65643C2F68313E003C68313E3230DC
:1001C00030204F4B3C2F68313E003C62723E3C6217
:1001D000723E3C74743E436F707972696768742034
:1001E000323031352C204A61776F72736B6920266B
:1001F000204B75736D696572637A796B3C2F7474EB
:100200003E0020B043002E002E002D003C666F6E95
:100210007420636F6C6F723D27626C756527207365
:10022000697A653D2735273E3C623E54656D7065B1
:100230007261747572613C2F623E3A203C2F666F8A
:100240006E743E003C686561643E3C6D657461207F
:10025000687474702D65717569763D275265667294
:100260006573682720636F6E74656E743D27333045
:1002700027202F3E3C2F686561643E00485454504F
:100280002F312E3020323030204F4B0D0A436F6E0D
:1002900074656E742D547970653A20746578742F86
:1002A00068746D6C0D0A507261676D613A206E6FF3
:1002B0002D63616368650D0A0D0A000011241FBEDD
:1002C000CFEFD8E0DEBFCDBF11E0A0E0B1E0ECE4BD
:1002D000F5E202C005900D92AA34B107D9F715E0F6
:1002E000AAE4B1E001C01D92AF31B107E1F70E946D
:1002F0008B110C94A4120C94000080FF02C05B9A36
:1003000001C05B9881FF02C05C9A01C05C9882FFCB
:1003100002C05D9A01C05D9883FF02C05E9A089595
:100320005E98089589B190E023E0969587952A9587
:10033000E1F781704C9982604D9984604E99886094
:1003400008951F935698559854985398599A5F9AC0
:100350000E949201182F1295107F5F985F9A0E9459
:1003600092015F98812B1F91089558980E94A101D6
:1003700008951F93182F569A559A549A539A59983C
:100380005F9A82958F700E947D015F985F9A812F9E
:100390000E947D015F980E94B50187FDFCCF1F91EF
:1003A000089558980E94B9010895589A0E94B90179
:1003B0000895982F8058883008F49770892F0E94EC
:1003C000D5010895CF93DF93EC0108C0892F8058A1
:1003D000883008F49770892F0E94D501999199234C
:1003E000A9F7DF91CF910895CF93DF93EC010AC075
:1003F000892F8058883010F0892F02C0892F87708C
:100400000E94D501FE0121969491992389F7DF91ED
:10041000CF9108951F93CF93DF93EB0190E0877006
:1004200090700896880F880F880F0E94D10110E005
:1004300089910E94D5011F5F1830D1F7DF91CF91CC
:100440001F9108950F931F93CF93DF938B0190E03B
:10045000877090700896880F880F880F0E94D101CE
:10046000C0E0D0E0F801EC0FFD1FE4918E2F0E9458
:10047000D5012196C830D105A9F7DF91CF911F9101
:100480000F910895813009F480E46058860F0E942E
:10049000D101089581E00E94D10108951F93569AD9
:1004A000559A549A539A509A579A519A589A5F9AD1
:1004B000599A86EA9EE00197F1F75F985898599803
:1004C0005F9A83E00E947D015F9881E094E001974C
:1004D000F1F75F9A83E00E947D015F9811E2812F1E
:1004E0008A95F1F75F9A83E00E947D015F98812FE2
:1004F0008A95F1F75F9A82E00E947D015F981A95D4
:10050000F1F788E20E94D10188E00E94D1018CE0DD
:100510000E94D10186E00E94D1010E944A021F91EF
:1005200008950F931F93CF93DF938B0190E0877013
:1005300090700896880F880F880F0E94D101C0E044
:10054000D0E0C8018C0F9D1F0E949C120E94D50113
:100550002196C830D105A9F7DF91CF911F910F9156
:100560000895CF93DF93EC0121960E949C12982F5F
:1005700081508E3F48F48F57883008F49770892F48
:100580000E94D501CE01EFCFDF91CF910895DF9387
:10059000CF93CDB7DEB761970FB6F894DEBF0FBE2D
:1005A000CDBFBE016F5F7F4F4AE050E00E947B12DB
:1005B0000E94E20161960FB6F894DEBF0FBECDBF78
:1005C000CF91DF9108952A98962F9F71982B9EBD09
:1005D0000DB407FEFDCF1EBC0DB407FEFDCF67FFB7
:1005E00004C01EBC0DB407FEFDCF2A9A8EB5089537
:1005F0002A986F71682B6EBD0DB407FEFDCF4EBDFE
:100600000DB407FEFDCF2A9A0895AC01FB012A988C
:100610008AE38EBD0DB407FEFDCF9A01DF0108C04D
:100620001EBC0DB407FEFDCF215030408EB58D931A
:1006300021153105A9F7E40FF51F10822A9A0895B4
:100640009C01FB012A988AE78EBD0DB407FEFDCF01
:1006500008C080818EBD0DB407FEFDCF2150304013
:10066000319621153105A9F72A9A08951F93CF9342
:10067000DF93182FC82FD0E0C076D07080914A0148
:1006800090E0C817D90791F080EA6FE143E00E943B
:10069000F80285E0D595C7958A95E1F780E86FE186
:1006A0004C2F0E94F802107610934A01DF91CF91EF
:1006B0001F9108951F93182F0E94360380E0612F29
:1006C0000E94E3021F9108950F931F93182F062F86
:1006D0000E94360380E4612F402F0E94F8021F9190
:1006E0000F910895682F84ED0E94640382ED61E00C
:1006F0000E94640388E28A95F1F78AEE0E945A0309
:1007000080FDFBCF82ED60E00E94640389ED0E94D2
:100710005A0390E008950F931F93982F162F072FD9
:1007200084ED692F0E94640386ED612F0E946403AB
:1007300087ED602F0E94640318E203C0812F8A9521
:10074000F1F78AEE0E945A0380FDF8CF1F910F91B6
:1007500008950F931F938C01229A2A9A84B188627C
:1007600084B9249A2B9A2D9A80E58CBD8DB5816031
:100770008DBD8FEF60E04FEF0E94F80280E090E0C7
:100780000197F1F710924C0110924B0188E060E064
:100790000E94640389E060E00E9464038CE060E0F2
:1007A0000E9464038DE060E00E9464038AE06FEFC2
:1007B0000E9464038BE069E10E94640384E060E0CE
:1007C0000E94640385E06AE10E94640386E06FEFA3
:1007D0000E94640387E06FE10E94640388E360EB9A
:1007E0000E94640388E26FE30E94640389E260E38D
:1007F0000E94640380E369EF0E94640381E367EF72
:100800000E94640380EC6DE00E94640381EC60E070
:100810000E94640380E862EC42E30E94F80286ECE6
:1008200062E10E94640387EC6CE00E94640384EC44
:1008300062E10E9464038AEC6CED0E9464038BEC1D
:1008400065E00E94640384EEF80160810E94640305
:1008500085EEF80161810E94640382EEF8016281F5
:100860000E94640383EEF80163810E94640380EEBA
:10087000F80164810E94640381EEF80165810E94A1
:10088000640380E160E071E00E948B038FE10E94CD
:10089000360380E86BE140EC0E94F80280E86FE1EB
:1008A00044E00E94F8021F910F91089582E70E9490
:1008B0005A03863008F08F5F089581E10E94720329
:1008C00020E0892B09F021E0822F08950F931F93D8
:1008D000CF93DF93EC018B010FC08CE10E945A0390
:1008E00081FF0AC080E86FE140E80E94F80280EAD8
:1008F0006FE140E80E94F80280E06FE10E94E302AD
:1009000083FDEBCF82E060E00E94640383E06AE154
:100910000E94640386E06C2F0E9464039E012050B5
:10092000364E87E0632F0E9464038AE760E040E070
:100930000E94F802CE01B8010E94200380E86FE116
:1009400048E00E94F802DF91CF911F910F91089526
:1009500089E30E945A03811181E008958F929F924A
:10096000AF92BF92CF92DF92EF92FF920F931F93BD
:10097000CF93DF935C014B0189E30E945A038823E4
:1009800019F4C0E0D0E070C000914B0110914C010F
:1009900080E0602F0E946403012F110F110B81E092
:1009A000602F0E9464038AE360E00E94E302182F34
:1009B0008AE360E00E94E302382F20E0E12EFF246A
:1009C000E22AF32AF0924C01E0924B018AE360E0C4
:1009D0000E94E302C82E8AE360E00E94E302D82E60
:1009E0008AE360E00E94E302082F10E08AE360E0FF
:1009F0000E94E302382F20E0202B312B27FD03C07B
:100A0000C0E0D0E011C0CC2DD0E09D2D80E0C82BFF
:100A1000D92BC501019724978C179D0708F4EC0189
:100A2000CE01B4010E94050381E0E8168AE1F806D0
:100A30003CF08CE06FEF0E9464038DE069E10DC033
:100A40006E2D61508CE00E9464030894E108F10867
:100A50006F2D772767FD7A958DE00E94640380E80B
:100A60006EE140E40E94F802CE01DF91CF911F9128
:100A70000F91FF90EF90DF90CF90BF90AF909F903D
:100A80008F900895CF92DF92EF92FF920F931F9372
:100A9000CF93DF936C01413081F4685070407B014B
:100AA00000E010E0685F7F4F21E130E040E050E07F
:100AB000E20EF31E041F151F15C0423021F0EE2474
:100AC000FF2487010FC0685070407B0100E010E0F8
:100AD000685F7F4F86E090E0A0E0B0E0E80EF91E8E
:100AE0000A1F1B1FF601EB0116C0808190E0A0E0F9
:100AF000B0E0BA2FA92F982F8827218130E040E05D
:100B000050E0822B932BA42BB52BE80EF91E0A1F65
:100B10001B1F32962297C230D10538F7FB01EE7FBA
:100B2000EC0DFD1D60FF15C0808190E0A0E0B0E0FD
:100B3000BA2FA92F982F882708C02FEF3FEF40E04A
:100B400050E0E222F32204231523E80EF91E0A1FC7
:100B50001B1FC801AA27BB270097A105B10569F78C
:100B6000970120953095C901DF91CF911F910F9189
:100B7000FF90EF90DF90CF900895CF93DF93EC013B
:100B8000509354014093070120E030E0F901E1580F
:100B9000FE4FDB01A20FB31F8C9180832F5F3F4F6D
:100BA0002430310599F720E030E0F901E758FE4F95
:100BB000DE01A20FB31F8C9180832F5F3F4F263041
:100BC000310599F7DF91CF910895DC0120E030E005
:100BD000FB01E20FF31F5A969C915A978081981758
:100BE00011F080E008952F5F3F4F119624303105BA
:100BF00079F781E00895FC0169327105B0F08485D0
:100C0000883099F48585863081F4DF019696EFE788
:100C1000F1E09C918081981741F41196319681E022
:100C2000E338F807B1F781E0089580E00895FC010A
:100C30006A327105D0F084858830B9F485858823BF
:100C4000A1F48685853489F4DF01EFE7F1E05E9653
:100C50009C915E978081981741F41196319681E0BE
:100C6000E338F807A1F781E0089580E00895FC01DA
:100C7000A9E7B1E0868180838D918683319681E0FA
:100C8000AF37B807B9F708950F931F938C01FC0194
:100C9000108E118E80E4848B158A868BC8010E9687
:100CA00064E170E040E00E944205F801908F818F7E
:100CB0001F910F910895AC01FC01AFE7B1E0828D67
:100CC000868F8D91828F319681E0A338B807B9F76E
:100CD000CA010E9444060895FC01B99694E08081FF
:100CE000680F711D84816483442311F0808301C0E7
:100CF000108291503197992319F0672F7727EFCF02
:100D000008950F931F938C01FC0194A182A184A3E9
:100D100092A395A183A185A393A3C8010E946C0609
:100D2000F80112AA13AA80E586A71F910F910895D2
:100D3000FC01908980E02189422F50E0482B592BFB
:100D400026A5822F82958F7090E0880F991F880FBB
:100D5000991F481B590B4451504057FF02C040E0B7
:100D600050E0CA0108956A5C7F4FDC01A60FB71FEF
:100D70006653704003C08D936F5F7F4FFA014F5FE2
:100D80005F4F84918823B9F7CB0108956A5C7F4F48
:100D9000DC01A60FB71F6653704003C08D936F5FD1
:100DA0007F4FFA014F5F5F4F84918823B9F7CB01E2
:100DB0000895DA016A5C7F4FFC01E60FF71F665366
:100DC0007040922F03C08D91819391509923D9F750
:100DD000CB01820F911D0895DC01FA0105C08491B9
:100DE0008D9331966150704061157105C1F708957A
:100DF000FF920F931F93CF93DF93EC01F62E072FF3
:100E0000BA01122F932FAE019E01A0E0B0E0FD01C8
:100E1000ED58FE4F8081F9018083FD01E758FE4FB8
:100E20008081F901868311962F5F3F4FA630B1056F
:100E300071F788E08C871D86DE01E0E7F0E08491A1
:100E40001E968C931E973196119680E0E937F8072D
:100E5000B1F7188A81E18F8BA0E0B0E0FB01EA0FC7
:100E6000FB1F8081FA01868FFD01E158FE4F8081D2
:100E7000FA01828F11964F5F5F4FA430B10571F771
:100E80009CA31DA30AA3FBA21EA218A619A6DF916C
:100E9000CF911F910F91FF90089580914D018695FC
:100EA000809581700895CF93DF93EC01EFE6F1E038
:100EB000DC015C969C915C978081981711F080E032
:100EC00010C01196319681E0E337F80791F7E3E718
:100ED000F1E08E898193219681E0E937F807C9F71F
:100EE00081E0DF91CF91089580914D0181FF03C092
:100EF000846080934D010895AC0181E080934D01A1
:100F000020E030E0F901E159FE4FDA01A20FB31FF2
:100F10008C9180832F5F3F4F2430310599F70895DE
:100F2000AC0120E030E0F901E75AFE4FDA01A20FF0
:100F3000B31F8C9180832F5F3F4F2430310599F789
:100F4000089590935E0180935D01709360016093BA
:100F50005F01509350014093510181E080934E0115
:100F600080914F018F5F80934F01883010F0109275
:100F70004F0180914F01089590936801809367011C
:100F800070936A016093690150936C0140936B0107
:100F900010925701309362012093610184E098E040
:100FA00069E778E040E550E00E94A107809358018E
:100FB00008950F931F939093680180936701709336
:100FC0006C0160936B015093640140936301309313
:100FD00066012093650181E08093570110936201BF
:100FE0000093610184E098E069E778E040E550E033
:100FF0000E94A107809358011F910F91089590932B
:101000006E0180936D010895EF92FF920F931F93ED
:10101000CF93DF93790190915801891759F0E091AE
:101020006101F091620184E060E070E040E050E036
:10103000099536C06623A1F52D30310588F1C091A0
:101040006101D0916201209759F1009152011091F4
:101050005301475F5F4F400F511F80E091E0BA019D
:1010600043E050E00E945D12F80166A5009759F434
:1010700062956F7070E0660F771F660F771F6E5D69
:101080007F4F80E00AC062956F7070E0660F771F37
:10109000660F771F6E5D7F4F81E0A701FE01099506
:1010A00080E0DF91CF911F910F91FF90EF90089515
:1010B000CF93DF93DA010D900020E9F71197A41B7D
:1010C0006A5C7F4FEC01C60FD71F66537040FA0170
:1010D000B0E09A012A0F3B1F02C081918993E21769
:1010E000F307D9F79B012A0F3B1FC901DF91CF916D
:1010F0000895EF92FF920F931F93DF93CF9300D049
:1011000000D00F92CDB7DEB790915801891719F032
:1011100040E050E06DC18091570100915201109163
:101120005301882309F06BC0D801D69660E070E0C7
:1011300003C08D936F5F7F4FFB01EB59FE4F84918E
:101140008823B9F76A5C7F4FD801A60FB71F665393
:10115000704080916701909168019C0103C08D935C
:101160006F5F7F4FF9012F5F3F4F84918823B9F75D
:101170004091690150916A01C8010E945808AC0170
:1011800060915201709153014A5C5F4FDB01A40FE3
:10119000B51F4653504083E591E003C02D934F5F48
:1011A0005F4FFC01019624912223C1F74A5C5F4FF7
:1011B000DB01A40FB51F4653504080916B01909105
:1011C0006C019C0103C08D934F5F5F4FF9012F5F4E
:1011D0003F4F84918823B9F74A5C5F4FDB01A40F2E
:1011E000B51F4653504083E191E003C02D934F5FFC
:1011F0005F4FFC01019624912223C1F7F9C0D80169
:10120000D696EE24FF2404C08D930894E11CF11CB3
:10121000F701E35FFE4F84918823B1F786E390E006
:10122000E80EF91ED801AE0DBF1D8AEC9FEFE80E47
:10123000F91E80916701909168019C0104C08D9313
:101240000894E11CF11CF9012F5F3F4F8491882322
:10125000B1F786E390E0E80EF91ED801AE0DBF1D90
:101260008AEC9FEFE80EF91E8BEF90E004C02D93FF
:101270000894E11CF11CFC01019624912223B9F78A
:1012800086E390E0E80EF91ED801AE0DBF1D8AEC92
:101290009FEFE80EF91E80916B0190916C019C010B
:1012A00004C08D930894E11CF11CF9012F5F3F4F9E
:1012B00084918823B1F740916301509164014115F5
:1012C000510569F186E390E0E80EF91ED801AE0DF4
:1012D000BF1D8AEC9FEFE80EF91E88EF90E004C076
:1012E0002D930894E11CF11CFC010196249122230A
:1012F000B9F786E390E0E80EF91ED801AE0DBF1DE8
:101300008AEC9FEFE80EF91ECA0104C02D930894E1
:10131000E11CF11CFC01019624912223B9F786E31C
:1013200090E0E80EF91ED801AE0DBF1D8AEC9FEFCC
:10133000E80EF91E80EC90E004C02D930894E11CA7
:10134000F11CFC01019624912223B9F786E390E079
:10135000E80EF91ED801AE0DBF1D8AEC9FEFE80E16
:10136000F91E8FEA90E004C02D930894E11CF11C53
:10137000FC01019624912223B9F7E0916501F091D7
:101380006601DF010D900020E9F71197CD018E1B5A
:101390009F0B8E010F5F1F4FB8014AE050E00E9483
:1013A0007B128091520190915301B701A8010E94D4
:1013B0005808BC0180915201909153016A5C7F4FA3
:1013C000DC01A60FB71F6653704029E730E003C069
:1013D0004D936F5F7F4FF9012F5F3F4F449144233F
:1013E000B9F740916501509166010E945808AC011F
:1013F000CA010F900F900F900F900F90CF91DF9137
:101400001F910F91FF90EF900895FF920F931F93FC
:10141000CF93DF93EC01F62E142F022FAC01DC01E9
:1014200020E030E0F901ED58FE4F80818C93F90106
:10143000E758FE4F808116968C9316972F5F3F4F8B
:1014400011962630310571F788E08C871D86DE0104
:10145000E0E7F0E084911E968C931E9731961196EA
:1014600080E0E937F807B1F78CE2898B86E08F8B53
:1014700020E030E0F901E75AFE4F8081FA01868FC3
:10148000F901E158FE4F8081FA01828F2F5F3F4FB3
:101490004F5F5F4F2430310569F7CE010E9444064B
:1014A0001CA30DA38BE08AA3FBA2FE01B69680E0ED
:1014B00011928F5F8830E1F78091080188A78D5FD6
:1014C0008093080180E68EA792E09FA783E088AB17
:1014D00019AA1AAA1BAA1CAA1DAA9EAB84E08FAB4C
:1014E00098AF86E289AFCE014A9660E270E042E0B2
:1014F0000E9442059AAB8BAB8AE390E0BE010E944A
:101500006604DF91CF911F910F91FF900895CF93C3
:10151000DF93EC01AC0129E731E0FC01D9019FEF39
:1015200090838D918683319681E0AF37B807C1F7FC
:1015300088E08C8786E08D87DE01E8E6F0E0849124
:101540001E968C931E973196119680E0E037F8072F
:10155000B1F7F90181919F01FA01868B10A24F5FCB
:101560005F4FF1E02F373F07A1F7DE015C9620E0E7
:1015700030E0FB01E20FF31F80811A968C931A97DB
:10158000F901E158FE4F80818D932F5F3F4F24304A
:10159000310579F780914D01886080934D018AE291
:1015A00090E0BE010E946604DF91CF910895EF9212
:1015B000FF920F931F937C01062F045EFC01018BA9
:1015C0000E9444060451F70107A3085010E0005F91
:1015D0001F4FC7014A96B80141E00E944205F7013A
:1015E00090A781A7C8014A96B7010E9466041F917F
:1015F0000F91FF90EF900895AF92BF92DF92EF921C
:10160000FF920F931F93CF93DF93EC015B01D42ED6
:10161000A801B90197010E94F8066D2D6D3D08F0F3
:101620006CEDDE019A9620E030E007C0F501E20F94
:10163000F31F80818D932F5F3F4F2617B8F3CE01A4
:101640000E94D70ADF91CF911F910F91FF90EF90E9
:10165000DF90BF90AF900895EF92FF920F931F938A
:101660008C017B01CB018896F801908B818BC8019E
:101670000E944406F80112AA13AA8CE190E0E80E39
:10168000F91EC8014A96B70142E00E944205F801DE
:1016900092AB83ABC7014A96B8010E9466041F91C2
:1016A0000F91FF90EF900895EF92FF921F93CF93C9
:1016B000DF93EC017B01142F0E943706812F80619C
:1016C0008FA7143031F0E114F10419F4A1E0EA2EEF
:1016D000F12CCE01B70141E00E948106188A88E210
:1016E000898BCE010E945B0684E088AB19AACE01EB
:1016F0004A966CE170E042E00E9442059AAB8BABE7
:1017000086E390E0BE010E946604DF91CF911F91B5
:10171000FF90EF900895EF92FF920F931F938C012B
:101720007B01609155017091560140E00E94540B7D
:1017300089E1F80187A7C801B7010E942C0B1F910E
:101740000F91FF90EF9008950F931F938C010E94CB
:101750003706F801108A8CE2818BC8010E945B0673
:1017600082E1F80187A7C80161E070E040E00E94D3
:101770008106F80116A217A28091080180A711A680
:101780008D5F8093080182E086AB84E087AB95E0B3
:1017900090AF11AE80E686A790AB88E781ABC80119
:1017A0004A9660E270E042E00E944205F80192AB86
:1017B00083AB8AE390E0B8010E9466041F910F9109
:1017C0000895DF92EF92FF920F931F93CF93DF93D1
:1017D000EC017B01142FD22E032F0E9437061D3DF2
:1017E00008F01CED188A145E198BCE010E945B066E
:1017F0008AA18CA38BA18DA30AA3DBA21EA21451E4
:101800001FA3185018A619A6DE019A9620E030E012
:1018100007C0F701E20FF31F80818D932F5F3F4FC9
:101820002117B8F3012F10E0005F1F4FCE014A9639
:10183000B80141E00E94420598A789A7C8014A96CD
:10184000BE010E946604DF91CF911F910F91FF901E
:10185000EF90DF9008950F931F93CF93DF93EC01E8
:101860008B010E943706CE010E945B061AA28CA152
:10187000883F18F08DA18F5F8DA38CA1885F8CA30A
:10188000C801BE010E946604DF91CF911F910F91A4
:101890000895CF93DF93EC010E9437061C8A82E003
:1018A0008D8BFE01A9E7B1E0868980A38D91868B9F
:1018B000319681E0AF37B807B9F7FE017C96AFE704
:1018C000B1E0808182878D91819381E0A338B80750
:1018D000C1F78AE290E0BE010E946604DF91CF91D9
:1018E0000895DF92EF92FF920F931F93CF93DF93B0
:1018F0008C017B0161157105E1F580914D018570C9
:1019000079F08091040190910501892B49F40E949E
:101910005D04882329F0C8016FE671E00E94870A00
:1019200080910401909105010196909305018093A7
:10193000040180914E01813009F051C180914D0127
:1019400081FF4DC182E080934E01809106018F5F3F
:10195000809306018F7160914F016295660F607EE2
:10196000682BC80140915001209151010E94050A45
:1019700036C10E94FB058823D9F0D80155968C9179
:10198000813019F4C8010E94490C80914D0183FFF8
:1019900026C1F801F588F2E0FF1609F020C1C80160
:1019A0000E945307882309F41AC1F0924D0117C110
:1019B000C801B7010E941706882309F410C1D80195
:1019C00057969C915797913091F492968C918830CC
:1019D00071F4E0916D01F0916E01309719F0C8013A
:1019E0004A960995C801B7010E942B0CF8C0B6E3CE
:1019F000EB16F10418F4963009F0F1C0F80194A147
:101A00009B3009F0AFC01093530100935201C801FD
:101A100069E571E00E94E505882309F4E0C0D8017A
:101A20009F968C919F97D82E82FF13C0E0915D0105
:101A3000F0915E01309709F48BC095968C91829558
:101A40008695877063E040E050E020E030E0099543
:101A50007FC0C8010E949806EC0180914E0182303F
:101A600099F5D1FE23C0D4FE21C0C80160E070E02A
:101A700040E00E94540B88E1F80187A7E0915F01E4
:101A8000F0916001309719F460E070E008C0D8016F
:101A900093968C918295869587700995BC0183E019
:101AA00080934E01C8010E942C0B99C081E0809365
:101AB0004E01D4FE03C060E070E003C0BE016F5F62
:101AC0007F4FC80144E075C0833099F5209789F1B4
:101AD00084E080934E01E0915D01F0915E013097CA
:101AE00041F1D8019E968C9182958F70482F50E0DD
:101AF000440F551F440F551FC70108974E5D5F4F98
:101B00008417950708F4AC01CA018C0F9D1FE816D5
:101B1000F90610F09E0103C09701241B350BD80174
:101B200095968C9182958695877060E009958823BB
:101B300051F480914E01853009F451C0F80187A518
:101B400080FF0AC02196C801BE0149E00E94540BE3
:101B500085E080934E0143C0209709F442C0C8013C
:101B6000BE0126C0809154019817C9F5D8019596F9
:101B70009C91959780910701981789F59F968C9174
:101B800081FF04C0C8010E94A40B29C084FF27C0A4
:101B9000C8010E9498069093560180935501892BA5
:101BA00059F4F80187A580FF1AC0C80160E070E011
:101BB00040E00E94540B13C0D8019E968C918295F0
:101BC0008F70C82FD0E0CC0FDD1FCC0FDD1FA29689
:101BD000E8EFFFEFEE0EFF1EEC16FD0610F4C0E07E
:101BE000D0E0CE01DF91CF911F910F91FF90EF9048
:101BF000DF900895DC0120E040E050E098E115C05E
:101C0000FD01E40FF51FE08138E08E2F8227F82FC9
:101C1000F17080FD29272695F13009F420683150B4
:101C200011F0E695F2CF4F5F5F4F4617570741F728
:101C3000822F0895AF92BF92DF92EF92FF920F939F
:101C40001F93DF93CF93CDB7DEB760970FB6F894AD
:101C5000DEBF0FBECDBFD82E7A015901DE0111962D
:101C6000E9E0F1E080E101900D928150E1F7FB01A4
:101C70008081482F50E0918180E0482B592BF0E182
:101C8000DF1679F4CA018E7F33E0880F991F3A95E9
:101C9000E1F7FB0126814CE050E0421B5109480F5F
:101CA000591F57FF07C081E0F70180835095419588
:101CB0005F4F02C0F7011082F8E2DF1699F4FB01D2
:101CC0008481682F70E0CB0180769070803691051A
:101CD00049F066FF02C04E7F05C065FF02C04C7F21
:101CE00001C0487FCA0124E0969587952A95E1F7BF
:101CF000F5018083842F8F70FE01E80FF11D818133
:101D0000F801808380E060960FB6F894DEBF0FBEC6
:101D1000CDBFCF91DF911F910F91FF90EF90DF909A
:101D2000BF90AF900895882319F0709561957F4F0B
:101D3000442319F0309521953F4F621773071CF427
:101D40004FEF5FEF07C040E050E02617370714F46D
:101D500041E050E0CA0108957F928F929F92AF9226
:101D6000BF92CF92DF92EF92FF920F931F93DF9378
:101D7000CF93CDB7DEB729970FB6F894DEBF0FBE6D
:101D8000CDBF782E6B015A0149018EEB60E070E007
:101D90000E9485108E010F5F1F4F4AE0E42EF12C48
:101DA000EC0EFD1E0E943510F80181938F01EE1597
:101DB000FF05C1F77E010894E11CF11CC70169E031
:101DC00070E00E94FA0D882311F083E008C0872D8F
:101DD000B701A601950184010E941A0E80E02996A0
:101DE0000FB6F894DEBF0FBECDBFCF91DF911F912C
:101DF0000F91FF90EF90DF90CF90BF90AF909F90AA
:101E00008F907F9008956F927F928F929F92AF9262
:101E1000BF92CF92DF92EF92FF920F931F93DF93C7
:101E2000CF93CDB7DEB729970FB6F894DEBF0FBEBC
:101E3000CDBF6C015B014A0139010E94FA0F8EEBA4
:101E4000B6010E9485108E010F5F1F4F5AE0E52EEC
:101E5000F12CEC0EFD1E0E943510F80181938F01CC
:101E6000EE15FF05C1F77E010894E11CF11CC701C6
:101E700069E070E00E94FA0D882311F083E009C048
:101E8000F6018081B701A501940183010E941A0E19
:101E900080E029960FB6F894DEBF0FBECDBFCF917C
:101EA000DF911F910F91FF90EF90DF90CF90BF9047
:101EB000AF909F908F907F906F9008951F93CF93D6
:101EC000DF93182FEB010E94FA0F0E94F10F882375
:101ED00011F482E009C084E4BE010E948510113033
:101EE00011F00E94F40F80E0DF91CF911F910895CF
:101EF0000F931F938C010E94FA0F84EBB8010E948C
:101F0000851081E00E941110182F0E94FA0F111104
:101F100011E0812F1F910F9108950F931F93CF937D
:101F2000DF938C01EB01F8018081BE010E94391022
:101F3000F801808381508D3F28F48881883211F028
:101F4000803189F7DF91CF911F910F910895CF9242
:101F5000DF92EF92FF921F93DF93CF93CDB7DEB75F
:101F600029970FB6F894DEBF0FBECDBF8FEF8983E0
:101F700010E062E0E62EF12CEC0EFD1E6E010894DE
:101F8000C11CD11C19C0C601B7010E948D0F8981E7
:101F90008F3FC1F08E3FB1F020E030E0F901E85F03
:101FA000FA4FD701A20FB31F8C9180832F5F3F4F51
:101FB00011E02830310591F78981882319F0112328
:101FC00011F311E0812F29960FB6F894DEBF0FBEF2
:101FD000CDBFCF91DF911F91FF90EF90DF90CF9019
:101FE000089586B188700895439A3B9A089543985E
:101FF0003B98089543983B9A80EA8A95F1F78FB70A
:10200000F8943B9896E19A95F1F796B18FBF8AE8DC
:102010008A95F1F7339902C081E00895892F88707D
:1020200008952FB7F8943B9A91E09A95F1F78111B2
:102030003B9895E09A95F1F7339B80E09FE09A9565
:10204000F1F73B982FBF08950F931F93182F08E0C7
:10205000812F81700E941110169581111068015016
:10206000B9F7812F1F910F9108958FEF0E942410CF
:102070000895DF92EF92FF920F931F93CF93DF9318
:10208000E82EEB010E94FA0F8823A1F580EF0E9451
:10209000241080E4FF24182F98EFD92ED80E81E069
:1020A0000E941110082F81E00E941110882329F04E
:1020B000002371F08EEFF82E1FC0002349F41E1587
:1020C00028F0888180FF04C0E11611F0F12E01E0B4
:1020D000802F0E941110888186958883002311F03B
:1020E0008068888311501D15D1F6112329F021969F
:1020F000812FD1CFFF24FA948F2DDF91CF911F91A3
:102100000F91FF90EF90DF9008950F931F93CF935F
:10211000DF93082FEB010E94FA0F209751F085E51D
:102120000E94241018E089910E9424101150D9F7C0
:1021300003C08CEC0E942410802F0E942410DF9199
:10214000CF911F910F9108959F92AF92BF92CF921E
:10215000DF92EF92FF920F931F93CF93DF93EC01E7
:102160006B01B42E922E97FD02C0AA2406C0D09512
:10217000C195DF4FBA94AA24A39476010894E11C78
:10218000F11C8601CE016AE070E00E943612CD2B70
:1021900031F4C016D10619F0F801908203C0805DB9
:1021A000F8018083F701BA940894E11CF11C0F5FD9
:1021B0001F4FEB011B1434F3AA2011F08DE2819321
:1021C0001082C6010E946B12C601DF91CF911F9150
:1021D0000F91FF90EF90DF90CF90BF90AF909F90C6
:1021E000089581E064E00E94420280911D058823E9
:1021F00019F089E191E002C08BE191E00E94E201D7
:1022000080911C0590E00E94C7028DE191E00E9440
:10221000E2018091100590E00E94C70280E80E94D0
:10222000D9018FE191E00E94E201089583E891E0F5
:1022300060E070E04CE752E00E94B3060895CF934F
:10224000DF93EC0180911C0590E068E175E042E0CD
:1022500020E20E94A41090931505809314058091AC
:10226000100590E061E175E041E020E20E94A410D9
:10227000909317058093160583E891E060E070E085
:102280004CE752E00E94B306BC01CE0144E452E0A8
:102290000E94B306BC01CE014CE052E00E94B3069E
:1022A000BC0180911D05882391F0CE014AE052E0E7
:1022B0000E94B306BC014091140550911505CE0152
:1022C0000E945808BC01CE0148E052E00BC040918A
:1022D000140550911505CE010E945808BC01CE018D
:1022E00046E052E00E94B306BC01409116055091B1
:1022F0001705CE010E945808BC01CE0142E052E011
:102300000E94B306BC01CE014AEC51E00E94B30624
:10231000DF91CF9108950F931F93CF93DF93219A6D
:10232000299A0E944E0280E86BE271E00E940A0244
:102330000E94A70F80931E0580E491E00E94A903EC
:1023400084E166E774E00E948B0380E491E066E438
:1023500071E040E550E00E94BD0509E110E0809188
:102360002A0164E10E942A12992319F580911C0523
:102370008A3010F40E944A0280E060E00E9442022B
:1023800083E391E00E94E20181E060E070E00E945E
:102390005E0F88E095E06DE175E04CE155E020E1ED
:1023A00035E00E94030F882311F40E94F11010926F
:1023B0002A0180912A018F5F80932A0184E893E0AB
:1023C00063E871E00E94AE04BC0183E891E00E94E2
:1023D000710CEC01009719F2BC016D577E4F82E23F
:1023E00091E044E050E00E945D12009771F083E8B4
:1023F00091E060E070E04CE752E00E94B306BC015F
:1024000083E891E04AEB51E016C0C957DE4F87E2FE
:1024100091E0BE0142E050E00E945D12009729F475
:1024200083E891E00E941F1108C083E891E060E01A
:1024300070E04AE651E00E94B306BC0183E891E0F7
:102440000E948B0B80E29EE4F8013197F1F701972F
:10245000D9F785CF991B79E004C0991F961708F02A
:10246000961B881F7A95C9F78095089597FB092ECA
:1024700007260AD077FD04D00CD006D000201AF42D
:10248000709561957F4F0895F6F7909581959F4FD0
:102490000895AA1BBB1B51E107C0AA1FBB1FA617AB
:1024A000B70710F0A61BB70B881F991F5A95A9F7FD
:1024B00080959095BC01CD010895FB01DC01415050
:1024C000504030F08D910190801919F40020B9F737
:1024D000881B990B0895DC01FC01672F719177230C
:1024E000E1F7329704C07C916D9370836291AE17CF
:1024F000BF07C8F30895FB019F01E8944230C4F080
:102500004532B4F44A3029F497FB1EF49095819536
:102510009F4F642F77270E944912805D8A330CF009
:10252000895D8193CB010097A1F716F45DE2519389
:102530001082C9010C946B12F999FECF92BD81BD36
:0C254000F89A992780B50895F894FFCF11
:10254C0032303000010001500A0001010202030484
:10255C000405060607070809092D0020002E004374
:10256C00200047455420002F2000140E11110E207E
:10257C0020202054656D70657261747572613A002B
:0A258C0000BE130D1CE6C0A8016498
:00000001FF
